:020000040800F2
:100000000000022051140008FD030008FF0300084F
:1000100001040008030400080504000800000000B3
:1000200000000000000000000000000007040008BD
:1000300009040008000000000B0400080D0400087B
:10004000A1140008A1140008A1140008A1140008BC
:10005000A1140008A1140008A1140008A1140008AC
:10006000A1140008A1140008A1140008A11400089C
:10007000A1140008A1140008A1140008A11400088C
:10008000A1140008A1140008A1140008A11400087C
:10009000A1140008A1140008A1140008A11400086C
:1000A000A1140008A1140008A1140008A11400085C
:1000B000A1140008A1140008A1140008A11400084C
:1000C000A1140008A1140008A1140008A11400083C
:1000D000A1140008A1140008A1140008A11400082C
:1000E000A1140008A114000800000000A1140008D9
:1000F000A1140008A1140008A1140008A11400080C
:10010000A1140008A1140008A1140008A1140008FB
:10011000A1140008A1140008A1140008A1140008EB
:10012000A1140008A1140008A1140008A1140008DB
:10013000A1140008A1140008A1140008A1140008CB
:1001400000000000000000000000000000000000AF
:10015000A1140008A1140008A1140008A1140008AB
:10016000A1140008A1140008A1140008A11400089B
:10017000A1140008A1140008A1140008A11400088B
:10018000A1140008A1140008A1140008A11400087B
:10019000A1140008A1140008A1140008A11400086B
:1001A000A1140008A1140008A1140008A11400085B
:1001B000A1140008A1140008A1140008A11400084B
:1001C000A1140008A1140008A1140008A11400083B
:1001D000A1140008A1140008A1140008A11400082B
:1001E000A1140008A1140008A1140008A11400081B
:1001F000A1140008A1140008A1140008A11400080B
:10020000A1140008A1140008A1140008A1140008FA
:10021000A1140008A1140008A1140008A1140008EA
:10022000A1140008A1140008A11400080000000097
:10023000A1140008A114000800000000A114000887
:10024000A1140008A1140008A1140008A1140008BA
:10025000A1140008A1140008A1140008A1140008AA
:10026000A1140008A1140008A1140008A11400089A
:10027000A1140008A1140008A11400080000000047
:10028000A1140008A1140008A11400080000000037
:0802900000000000A1140008A9
:1002980010B5054C237833B9044B13B10448AFF3B8
:1002A80000800123237010BD100000200000000012
:1002B800FC14000808B5034B1BB103490348AFF30E
:1002C800008008BD0000000014000020FC14000895
:1002D80030B587B0002401940294039404940594E3
:1002E8000F4BD3F8E02042F01002C3F8E020D3F817
:1002F800E03003F010030093009B0A4D22460421CE
:10030800284600F07FFF04230193012302930394FE
:10031800049401A9284600F065FE07B030BD00BF6F
:10032800004402580010025872B6FEE700B59DB0AE
:100338004C22002109A801F0D5F82022002101A8AB
:1003480001F0D0F8022000F06DFF002300931E4B4F
:10035800DA6A22F00102DA62DB6A03F00103009331
:100368001A4A936923F4404343F4804393619369A1
:1003780003F440430093009B144B9B6913F4005F04
:10038800FAD00223099301230C9340230D930023F1
:10039800129309A800F0A8F888B93F230193002315
:1003A80002930393049305930693079308930121FB
:1003B80001A800F0CDFC20B91DB05DF804FBFFF7E3
:1003C800B3FFFFF7B1FF00BF000400580048025810
:1003D80008B500F079FFFFF7A9FFFFF779FF0421BF
:1003E800034800F015FF4FF47A7000F0ADFFF6E710
:1003F80000100258FEE7FEE7FEE7FEE7FEE770475B
:100408007047704708B500F08DFF08BD82B0074BF4
:10041800D3F8F42042F00202C3F8F420D3F8F43001
:1004280003F002030193019B02B070470044025895
:100438000649CB6823F4E0631B041B0C000200F49C
:10044800E0600343024A1A43CA60704700ED00E0C7
:100458000000FA0500B5174BDB68C3F30223C3F1AC
:10046800070CBCF1040F28BF4FF0040C03F1040E75
:10047800BEF1060F14D9033B4FF0FF3E0EFA0CFCF9
:1004880021EA0C0199400EFA03FE22EA0E020A4301
:10049800002807DB1201D2B2074B1A545DF804FB9F
:1004A8000023E9E700F00F001201D2B2034B1A54FF
:1004B800F4E700BF00ED00E000E400E014ED00E028
:1004C8000138B0F1807F0BD24FF0E0235861054A24
:1004D800F02182F823100020986107221A617047E2
:1004E8000120704700ED00E0002800F0188338B5BF
:1004F8000446036813F0010F25D0944A136903F0EA
:100508003803926A102B15D0182B0FD06368B3F5F7
:10051800803F3FD0002B53D18C4B1A6822F4803295
:100528001A601A6822F480221A6038E002F0030286
:10053800022AEBD1854B1B6813F4003F03D0636894
:10054800002B00F0EE82236813F0020F00F0A18068
:100558007E4A1369926A13F038035AD0182B55D083
:10056800E368002B00F0DE8078490A6822F019025F
:1005780013430B6000F0E2FE0546744B1B6813F052
:10058800040F40F0AD8000F0D9FE401B0228F4D9DA
:100598000320CDE26D4A136843F480331360636827
:1005A8002BB300F0CBFE0546684B1B6813F4003FE5
:1005B800C9D100F0C3FE401B6428F5D90320B7E277
:1005C800B3F5A02F09D0614B1A6822F480321A6063
:1005D8001A6822F480221A60E1E75C4B1A6842F438
:1005E80080221A601A6842F480321A60D7E700F055
:1005F800A5FE0546554B1B6813F4003FA3D000F039
:100608009DFE401B6428F5D9032091E212F0030FE8
:10061800A6D14E4B1B6813F0040F03D0E368002BE0
:1006280000F08182494A136823F01903E1680B43FB
:10063800136000F083FE0546444B1B6813F0040F5B
:1006480006D100F07BFE401B0228F5D903206FE29B
:1006580000F08EFE41F20303984212D82269402A24
:1006680007D03A494B6823F47C3343EA02334B60A2
:100678000FE0364A536823F47C3343F40033536065
:1006880007E0324A536823F0FE43216943EA0163D5
:100698005360236813F0100F00F088802B4A136909
:1006A80003F03803926A082B56D0182B50D0E36910
:1006B800002B00F0B880254A136843F080031360CC
:1006C80000F03CFE0546214B1B6813F4807F40F088
:1006D800888000F033FE401B0228F4D9032027E26B
:1006E80000F046FE41F20303984212D82269402ADC
:1006F80007D016494B6823F47C3343EA02334B6036
:10070800C7E7124A536823F47C3343F40033536039
:10071800BFE70E4A536823F0FE43216943EA0163A9
:100728005360B6E7094A136823F00103136000F029
:1007380005FE0546054B1B6813F0040FA9D000F011
:10074800FDFD401B0228F5D90320F1E100440258C1
:1007580002F00302012AAAD1A14B1B6813F4807F7F
:1007680003D0E369802B40F0E08100F001FE41F204
:100778000303984212D8226A202A07D098494B6866
:1007880023F0F84343EA82634B600FE0944A5368CE
:1007980023F0F84343F08043536007E0904AD3685E
:1007A80023F07C53216A43EA0163D360236813F082
:1007B800080F60D06369002B49D0894A536F43F012
:1007C8000103536700F0BAFD0546854B5B6F13F0D4
:1007D800020F50D100F0B2FD401B0228F5D90320CA
:1007E800A6E100F0C5FD41F20303984212D8226A3F
:1007F800202A07D07A494B6823F0F84343EA8263FA
:100808004B60D3E7764A536823F0F84343F08043BC
:100818005360CBE7724AD36823F07C53216A43EADA
:100828000163D360C2E76E4A136823F08003136044
:1008380000F084FD05466A4B1B6813F4807FB5D031
:1008480000F07CFD401B0228F5D9032070E1644AC2
:10085800536F23F00103536700F070FD0546604BAA
:100868005B6F13F0020F06D000F068FD401B0228F2
:10087800F5D903205CE1236813F0200F29D0A36980
:100888009BB1574A136843F48053136000F056FD38
:100898000546534B1B6813F4005F1AD100F04EFD58
:1008A800401B0228F5D9032042E14D4A136823F47E
:1008B8008053136000F042FD0546494B1B6813F452
:1008C800005F06D000F03AFD401B0228F5D903204E
:1008D8002EE1236813F0040F21D1636A002B00F086
:1008E80026813F4A126902F03802182A00F0EE8089
:1008F800022B79D03A4A136823F08073136000F012
:100908001DFD0446364B1B6813F0007F00F0DC80A9
:1009180000F014FD001B0228F4D9032008E1314A35
:10092800136843F48073136000F008FD05462D4BEF
:100938001B6813F4807F06D100F000FD401B64287B
:10094800F5D90320F4E0A368012B0AD00BBB244B94
:100958001A6F22F001021A671A6F22F004021A674E
:1009680004E01F4A136F43F001031367A36833B30E
:1009780000F0E4FC05461A4B1B6F13F0020FACD1D4
:1009880000F0DCFC401B41F288339842F3D9032085
:10099800CEE0052B09D0124B1A6F22F001021A671C
:1009A8001A6F22F004021A67E0E70D4B1A6F42F043
:1009B80004021A671A6F42F001021A67D6E700F0BC
:1009C800BDFC0546064B1B6F13F0020F85D000F0E7
:1009D800B5FC401B41F288339842F3D90320A7E0C5
:1009E8000044025800480258594A136823F080739B
:1009F800136000F0A3FC0546554B1B6813F0007FFD
:100A080006D000F09BFC401B0228F5D903208FE09C
:100A18004F4B996A4F4A0A40A16AE06A41EA0011BD
:100A28000A439A62226B013AC2F30802616B0139E8
:100A3800490289B20A43A16B0139090401F4FE0194
:100A48000A43E16B0139090601F0FE410A431A63C2
:100A5800DA6A22F00102DA62596B3F4A0A40A16C55
:100A680042EAC1025A63DA6A22F00C02216C0A4394
:100A7800DA62DA6A22F00202616C0A43DA62DA6A3E
:100A880042F48032DA62DA6A42F40032DA62DA6A0E
:100A980042F48022DA62DA6A42F00102DA621A6803
:100AA80042F080721A6000F049FC0446284B1B682B
:100AB80013F0007F06D100F041FC001B0228F5D995
:100AC800032035E0002033E0002031E0204A916A1D
:100AD800106B012B2DD001F00303A26A93422AD197
:100AE800C1F30511E36A994227D1C0F30802236BC9
:100AF800013B9A4223D1C0F34622636B013B9A42E1
:100B08001FD1C0F30642A36B013B9A421BD1C0F32D
:100B18000660E36B013B984217D1002008E00120F2
:100B28007047012004E0012002E0012000E00020DD
:100B380038BD0120FCE70120FAE70120F8E7012091
:100B4800F6E70120F4E70120F2E70120F0E700BF13
:100B5800004402580CFCFFFF0700FFFF744B1B69A1
:100B680003F03803102B00F0DE80182B0FD00BB1E8
:100B7800704870476E4B1B6813F0200F00F0D5804B
:100B88006B4B1B68C3F3C1036B48D840704710B464
:100B9800674B9A6A02F003029C6AC4F30510D96A8B
:100BA80001F001015B6BC3F3CC0301FB03F307EE18
:100BB800903AF8EE677A14F47C7F00F09480012A6A
:100BC80066D0022A00F09280E2B107EE100AF8EE31
:100BD800476A9FED5A6A86EE267A554B1B6BC3F31C
:100BE800080306EE903AF8EE666A9FED556A67EEDE
:100BF800867A76EEA77AF7EE006A77EEA67A27EE7F
:100C0800277A61E04A4B1B6813F0200F23D048492C
:100C18000A68C2F3C102484BD34007EE103AF8EE17
:100C2800476A07EE100AB8EE476A86EE867A0B6BBB
:100C3800C3F3080306EE903AF8EE666A9FED406A41
:100C480067EE867A76EEA77AF7EE006A77EEA67AEE
:100C580027EE277A38E007EE100AF8EE476A9FED8C
:100C6800396A86EE267A324B1B6BC3F3080306EE0D
:100C7800903AF8EE666A9FED326A67EE867A76EE0B
:100C8800A77AF7EE006A77EEA67A27EE277A1BE0B6
:100C980007EE100AF8EE476A9FED286A86EE267A74
:100CA800234B1B6BC3F3080306EE903AF8EE666A13
:100CB8009FED236A67EE867A76EEA77AF7EE006AEA
:100CC80077EEA67A27EE277A194B1B6BC3F34623D8
:100CD800013307EE903AF8EE677AC7EE276AFCEE22
:100CE800E67A17EE900A5DF8044B704707EE100A93
:100CF800F8EE476A9FED146A86EE267A0C4B1B6B5A
:100D0800C3F3080306EE903AF8EE666A9FED0C6AA4
:100D180067EE867A76EEA77AF7EE006A77EEA67A1D
:100D280027EE277AD0E7094870470348704700BF85
:100D38000044025800093D000090D0030024744A82
:100D4800000000390024744C20BCBE4B40787D0163
:100D5800002800F0328170B50D4604469B4B1B6895
:100D680003F00F038B420BD2984A136823F00F034A
:100D78000B431360136803F00F038B4240F01F818D
:100D8800236813F0040F0CD02269914B9B6903F080
:100D980070039A4205D98E498B6923F070031A4370
:100DA8008A61236813F0080F0CD06269884BDB69ED
:100DB80003F070039A4205D98549CB6923F0700383
:100DC8001A43CA61236813F0100F0CD0A269804B34
:100DD800DB6903F4E0639A4205D97D49CB6923F4C2
:100DE800E0631A43CA61236813F0200F0CD0E2694C
:100DF800774B1B6A03F070039A4205D974490B6A52
:100E080023F070031A430A62236813F0020F0CD010
:100E1800E2686F4B9B6903F00F039A4205D96C494E
:100E28008B6923F00F031A438A61236813F0010FBB
:100E380041D0674A936923F47063A1680B439361B7
:100E48006368022B0AD0032B27D0012B2CD0604AD1
:100E5800126812F0040F06D10120ADE0126812F4F6
:100E6800003F00F0AE805A490A6922F00702134396
:100E78000B6100F063FA0646554B1B6903F0380313
:100E88006268B3EBC20F16D000F058FA801B41F22B
:100E980088339842F0D903208EE04D4A126812F048
:100EA800007FE0D1012087E0494A126812F4807F70
:100EB800D9D1012080E0236813F0020F0CD0E2683A
:100EC800434B9B6903F00F039A4205D240498B6953
:100ED80023F00F031A438A613C4B1B6803F00F038E
:100EE800AB420AD9394A136823F00F032B43136026
:100EF800136803F00F03AB4265D1236813F0040FA6
:100F08000CD02269324B9B6903F070039A4205D2D8
:100F18002F498B6923F070031A438A61236813F001
:100F2800080F0CD062692A4BDB6903F070039A4200
:100F380005D22749CB6923F070031A43CA61236895
:100F480013F0100F0CD0A269214BDB6903F4E063A6
:100F58009A4205D21E49CB6923F4E0631A43CA6159
:100F6800236813F0200F0CD0E269194B1B6A03F0B9
:100F780070039A4205D216490B6A23F070031A438C
:100F88000A62FFF7EBFD12498B69C3F30323114A89
:100F9800D35C03F01F03D8408B6903F00F03D35CC5
:100FA80003F01F0320FA03F30B4A13600B4B18607E
:100FB8000B4B186800F060F970BD012070470120E4
:100FC800FAE70120F8E70120F6E700BF0020005209
:100FD80000440258141500080C00002008000020E6
:100FE80004000020F0B583B000236BE085685E0044
:100FF8000324B44025EA0405CC68B4402C4384603B
:10100800456825EA0C054C68C4F300149C402C4341
:10101800446069E0DD08083550F8254003F0070C06
:101028004FEA8C0C4FF00F0E0EFA0CFE24EA0E0E4F
:101038000C6904FA0CF444EA0E0440F825406BE00D
:10104800092400E0002404FA0EF42C430CF1020CED
:10105800694D45F82C404FF0B0442568D44325EA43
:1010680002064F6817F4801F01D042EA05064FF0C8
:10107800B0452E606D6804EA05064F6817F4001F36
:1010880001D042EA05064FF0B0456E60D5F88450AD
:1010980004EA05064F6817F4003F01D042EA050646
:1010A8004FF0B045C5F88460D5F880502C404E68A4
:1010B80016F4803F01D042EA05044FF0B042C2F86E
:1010C800804001330A6832FA03F400F092804FF04E
:1010D800010C0CFA03FC1CEA0202F2D04C6804F082
:1010E8000304013C012C81D94C6804F00304032C4F
:1010F8000CD0C4685D004FF0030C0CFA05FC24EA20
:101108000C0C8C68AC4044EA0C04C4604C6804F0D5
:101118000304022C3FF47EAF04684FEA430E4FF0FD
:10112800030C0CFA0EFC24EA0C0C4C6804F00304C3
:1011380004FA0EF444EA0C0404604C6814F4403FCA
:10114800BFD02E4CD4F8F45045F00205C4F8F45042
:10115800D4F8F44004F002040194019C4FEA930C83
:101168000CF10205244C54F8255003F0030E4FEA05
:101178008E0E0F2404FA0EF425EA0405204CA04232
:101188003FF460AF04F58064A04222D004F5806487
:10119800A04220D004F58064A0421ED004F58064EB
:1011A800A0421CD004F58064A0421AD004F58064E3
:1011B800A04218D004F58064A04216D004F58064DB
:1011C800A04214D004F58064A0423FF439AF0A2449
:1011D80039E7012437E7022435E7032433E70424F9
:1011E80031E705242FE706242DE707242BE70824F9
:1011F80029E703B0F0BD00BF0004005800440258BE
:10120800000002580AB18161704709048161704782
:10121800436901EA030221EA030141EA02418161CB
:1012280070470000134BDB6813F0040F07D1114B14
:10123800DB6803F0070383421AD00120704710B51A
:101248000C4AD36823F007030343D36000F076F811
:101258000446084B5B6813F4005F07D100F06EF892
:10126800001BB0F57A7FF4D9012000E0002010BD02
:101278000020704700480258104B1B780BB901201A
:10128800704710B504464FF47A70B0FBF3F30C4A7C
:101298001068B0FBF3F0FFF713F968B90F2C01D908
:1012A80001200AE0002221464FF0FF30FFF7D2F874
:1012B800044B1C60002000E0012010BD000000204D
:1012C800080000200400002010B50320FFF7B0F844
:1012D800FFF744FC0F498B69C3F303230E4AD35C21
:1012E80003F01F03D8408B6903F00F03D35C03F0AE
:1012F8001F0320FA03F3094A1360094B18600F20F3
:10130800FFF7BAFF10B10124204610BD0446FFF7CD
:101318007DF8F9E700440258141500080C00002075
:1013280008000020034B1B78034A11680B44136024
:10133800704700BF000000202C000020014B1868F7
:10134800704700BF2C00002038B50446FFF7F6FFB1
:101358000546B4F1FF3F02D0044B1B781C44FFF74D
:10136800EDFF401BA042FAD338BD00BF00000020AB
:10137800014B1868000C70470010005C274AD2F82F
:10138800883043F47003C2F88830254B1B6803F09B
:101398000F03062B06D8224A136823F00F0343F0E5
:1013A800070313601F4B1A6842F001021A600022FB
:1013B8001A6119681C4A0A401A60194B1B6813F015
:1013C800080F06D0164A136823F00F0343F00703EB
:1013D8001360144B00229A61DA611A621349996208
:1013E8001349D962134919635A639963DA63196413
:1013F8005A64196821F4802119601A660E4B1A681C
:101408000E4B1340B3F1005F03D20D4B0122C3F81A
:1014180008210C4B43F2D2021A60704700ED00E03D
:1014280000200052004402587FEDF6EA0002020252
:101438000000FF01800201010010005C0000FFFFB6
:101448000080005100400052DFF834D0FFF796FFCB
:101458000C480D490D4A002302E0D458C450043307
:10146800C4188C42F9D30A4A0A4C002301E01360DD
:101478000432A242FBD300F011F8FEF7A9FF70472F
:101488000000022000000020100000202C15000899
:101498001000002030000020FEE7000070B50D4D60
:1014A8000D4C641BA4100026A64209D10B4D0C4C10
:1014B80000F020F8641BA4100026A64205D170BDD8
:1014C80055F8043B98470136EEE755F8043B984732
:1014D8000136F2E724150008241500082415000831
:1014E8002815000802440346934200D1704703F8C8
:1014F800011BF9E7F8B500BFF8BC08BC9E46704769
:0C150800F8B500BFF8BC08BC9E46704758
:101514000000000001020304010203040607080995
:04152400BD020008FC
:04152800990200081C
:10152C0001000000100000000090D0030090D003D8
:04000005080014518A
:00000001FF
