:020000040800F2
:10000000000002200585000835230008372300087A
:10001000392300083B2300083D23000800000000AE
:100020000000000000000000000000003F23000866
:100030004123000800000000432300084523000876
:100040005585000855850008558500085585000828
:100050005585000855850008558500085585000818
:100060005585000855850008558500085585000808
:1000700055850008558500085585000855850008F8
:1000800055850008558500085585000855850008E8
:1000900055850008558500085585000855850008D8
:1000A00055850008558500085585000855850008C8
:1000B00055850008558500085585000855850008B8
:1000C00055850008558500085585000855850008A8
:1000D0005585000855850008558500085585000898
:1000E000558500085585000800000000558500086A
:1000F0005585000855850008558500085585000878
:100100005585000855850008558500085585000867
:100110005585000855850008558500085585000857
:100120005585000855850008558500085585000847
:100130005585000855850008558500085585000837
:1001400000000000000000000000000000000000AF
:100150005585000855850008558500085585000817
:100160005585000855850008558500085585000807
:1001700055850008558500085585000855850008F7
:1001800055850008558500085585000855850008E7
:1001900055850008558500085585000855850008D7
:1001A00055850008558500085585000855850008C7
:1001B00055850008558500085585000855850008B7
:1001C00055850008558500085585000855850008A7
:1001D0005585000855850008558500085585000897
:1001E0005585000855850008558500085585000887
:1001F0005585000855850008558500085585000877
:100200005585000855850008558500085585000866
:100210005585000855850008558500085585000856
:100220005585000855850008558500080000000028
:100230005585000855850008000000005585000818
:100240005585000855850008558500085585000826
:100250005585000855850008558500085585000816
:100260005585000855850008558500085585000806
:1002700055850008558500085585000800000000D8
:1002800055850008558500085585000800000000C8
:08029000000000005585000884
:100298000348044B834202D0034B03B1184770470D
:1002A8001000002010000020000000000548064B48
:1002B8001B1AD90F01EBA301491002D0034B03B15C
:1002C80018477047100000201000002000000000B0
:1002D80010B5064C237843B9FFF7DAFF044B13B186
:1002E8000448AFF300800123237010BD10000020E4
:1002F800000000005885000808B5044B1BB10449EC
:100308000448AFF30080BDE80840CFE700000000D4
:10031800140000205885000870B50D4E0D4D761B51
:10032800B61006D0002455F8043B01349847A6427D
:10033800F9D1094E094D761B08F00AF9B61006D016
:10034800002455F8043B01349847A642F9D170BD02
:10035800B0850008B0850008B4850008B08500089D
:10036800830730B548D0541E002A3FD0CAB203468E
:1003780001E0013C3AD303F8012B9D07F9D1032C86
:100388002DD9CDB245EA05250F2C45EA054536D9C4
:10039800A4F1100222F00F0C03F1200EE6444FEAFC
:1003A800121C03F1100242E9045542E902551032C9
:1003B8007245F8D10CF1010214F00C0F03EB021294
:1003C80004F00F0C13D0ACF1040323F0030304333F
:1003D800134442F8045B9342FBD10CF003042CB1A4
:1003E800CAB21C4403F8012B9C42FBD130BD6446C1
:1003F8001346002CF4D1F9E703461446BFE71A4622
:10040800A446E0E753B94AB9002908BF00281CBF31
:100418004FF0FF314FF0FF3000F06AB9ADF1080C32
:100428006DE904CE00F006F8DDF804E0DDE902230A
:1004380004B070472DE9F047089D0C46002B4ED1BB
:1004480094468C458646B2FA82F262D94AB1C2F124
:100458002003914020FA03F30CFA02FC194300FA36
:1004680002FE4FEA1C471FFA8CF6B1FBF7F44FEA7D
:100478001E4307FB141143EA014304FB06F19942AA
:100488000AD91CEB030304F1FF3080F01381994271
:1004980040F21081023C6344591A1FFA8EF3B1FBF3
:1004A800F7F007FB101143EA014300FB06F69E42F2
:1004B8000AD91CEB030300F1FF3180F0FD809E4256
:1004C80040F2FA80634402389B1B40EA0440002152
:1004D8001DB1D3400022C5E90032BDE8F0878B4248
:1004E80005D90DB1C5E9000100210846F5E7B3FAC1
:1004F80083F1002946D1A34202D39042C0F0F18093
:10050800861A64EB03030120002DE6D0C5E90063D9
:10051800E3E7002A40F09180A1EB0C044FEA1C4865
:100528001FFA8CF70121B4FBF8F64FEA1E4308FBCB
:10053800164443EA044307FB06F0984208D91CEB2B
:10054800030306F1FF3402D2984200F2CE80264619
:100558001C1A1FFA8EF3B4FBF8F008FB104443EAA8
:10056800044300FB07F79F4208D91CEB030300F183
:10057800FF3402D29F4200F2B1802046DB1B40EAE2
:100588000640A5E7C1F120068B4022FA06F71F4373
:1005980020FA06FC04FA01F343EA0C03F44000FADB
:1005A80001F8380C4FEA1349B4FBF0FE1FFA87FC38
:1005B80000FB1E4449EA04440EFB0CF9A14502FA6B
:1005C80001F20AD93C190EF1FF3A80F08580A14565
:1005D80040F28280AEF1020E3C44A4EB09041FFAFB
:1005E80083F9B4FBF0F300FB134449EA044403FB2A
:1005F8000CFCA44507D93C1903F1FF3068D2A44587
:1006080066D9023B3C4443EA0E40A0FB0293A4EBAC
:100618000C049C42CE469C4652D34FD055B1B8EB01
:100628000E0364EB0C0404FA06F6CB40CC401E43E0
:10063800C5E900640021BDE8F087C2F1200320FA73
:1006480003F10CFA02FC24FA03F394400C434FEA3A
:100658001C4800FA02FE1FFA8CF7B3FBF8F008FBFF
:100668001031230C43EA014300FB07F1994208D9F2
:100678001CEB030300F1FF362CD299422AD9023829
:1006880063445B1AA4B2B3FBF8F108FB113344EAE4
:10069800034401FB07F3A34208D91CEB040401F14E
:1006A800FF3613D2A34211D902396444E41A41EA4D
:1006B800004138E70446EFE6084605E7C845ADD2ED
:1006C800B9EB020E63EB070C0138A7E73146EDE7FB
:1006D800034698E73046D4E7D6467EE763440238B7
:1006E8004CE70646234608460EE7023E63442FE7DA
:1006F800704700BF00B58BB006F0DEF900F0D0FC03
:1007080000F032FD00F068FF042001F08DF840F29F
:10071800DC5006F011FA00F0B7FE00F0EDFE00F034
:1007280023FF00F083FE00F03FFD00F0F7FD00F02E
:100738009DFD00F049FE00238DF8243006930793B1
:1007480002AA0892FF228DF82720C3228DF82520BF
:100758008DF826308DF800308DF801308DF8023094
:100768008DF803308DF804308DF805308DF806309B
:1007780006A801F097F918BB01F0CEFB684601F016
:100788006BFD08BB012001F04FF800F0D8FBF8B969
:1007980000F0C2FB00BB00F0ACFB08BB4FF47A7062
:1007A80006F0CAF900F0CCFAF0B90121344B1970FF
:1007B800344801F08BFDF8B1172000F0EFFF1BE083
:1007C800002000F0EBFFD7E71B2000F0E7FFD9E798
:1007D800272000F0E3FFDBE7282000F0DFFFDAE75F
:1007E800282000F0DBFFD9E7282000F0D7FFDCE75E
:1007F80000F04AF8224B1870214B1B78013B082B5C
:100808003AD801A252F823F0F90700083508000881
:100818003F08000849080008530800085D08000858
:1008280067080008710800087B08000800F040F815
:10083800134B1870E0E700F063F8114B1870DBE712
:1008480000F0B4F80E4B1870D6E700F0BBF80C4B6C
:100858001870D1E700F024F9094B1870CCE700F0C4
:10086800F9F9074B1870C7E700F0FAF9044B18704C
:10087800C2E700F003FABFE7262000F08FFFBBE7CE
:10088800320000203100002008B50C2000F00EFADC
:10089800332000F030FA022000F0E9FA034B1B780D
:1008A800DBB2022BFAD1022008BD00BF32000020C3
:1008B80008B50C2000F01FFA4FF4FA6006F03CF976
:1008C800022000F094FA032000F0F0F94FF4FA50F7
:1008D80006F032F9032000F00EFA022000F0C7FA01
:1008E8004FF4FA6006F028F90C2000F0DFF9034B0A
:1008F8001B78DBB2032BFAD1032008BD320000209D
:1009080000B52DED028B8BB0282200216846FFF739
:1009180027FD032000F0EFF9022000F0A8FA0C20D0
:1009280000F0C4F9684601F03FFC0021009801F08E
:100938001BFB0621069801F017FB4FF47A7006F0AE
:10094800FBF8174B01221A7002E0154B00221A70AF
:10095800144B1B78DBB2042B1CD0684601F024FC36
:100968000021009801F000FBB0EE408A06210698AD
:1009780001F0FAFADFED0C7AB4EEE78AF1EE10FA3C
:10098800E3DCB4EEE70AF1EE10FADEDC044B0122F8
:100998001A70DDE704200BB0BDEC028B5DF804FB98
:1009A8002C000020320000200000164408B500F09A
:1009B80061FB034B1B78DBB2052BFAD1052008BD80
:1009C8003200002010B594B02C22002109A8FFF7AE
:1009D800C7FC0C2000F08FF94FF4FA6006F0ACF871
:1009E800012000F063F94FF4FA5006F0A5F8022050
:1009F80000F05CF94FF4FA5006F09EF8002000F081
:100A0800F6F940F6AC5006F097F8002000F02FFAFF
:100A180041F2883006F090F800F0D2FE4FF47A6088
:100A280006F08AF8022000F09EF900F0A9FA00F01A
:100A380017FB14E009AC204600F0EAFAEC460DF189
:100A4800340EBEE80F00ACE80F009EE807008CE803
:100A5800070094E80F0000F09BFA00F001FB41F258
:100A68008733984207D80C4B1878092811D00B4BBC
:100A78001B78002BDED0022000F0F9F9032000F0EB
:100A88003AF9302000F012F94FF4FA5006F054F811
:100A9800062014B010BD00BF320000203000002036
:100AA8002DE9F0432DED028B8BB0282200216846FA
:100AB800FFF756FC0C2000F0F9F8302000F01BF985
:100AC8005E4B1B78002BFBD000255D4B1D7006F09C
:100AD8002DF8064606F02AF8841B684601F064FBE8
:100AE8002946009801F040FAB0EE408A062106989F
:100AF80001F03AFADFED537AB4EEE78AF1EE10FA34
:100B080006D8B4EEE70AF1EE10FA07D8012505E099
:100B1800002503E0002506F009F8841B85F001058F
:100B2800494B9C428CBF002505F00105CDB1002141
:100B3800009801F019FAB0EE408A0621069801F0F3
:100B480013FADFED407AB4EEE78AF1EE10FAE1D855
:100B5800B4EEE70AF1EE10FA01D90025DBE701252A
:100B6800D9E7374B01221A70384B1B78002BFBD082
:100B7800042000F0C0F84FF4FA6005F0DDFF012012
:100B880000F094F8002000F032F94FF4FA5005F024
:100B9800D3FF0C2000F08AF8022000F068F94FF427
:100BA800FA6005F0C9FF032000F0A5F84FF4FA50E9
:100BB80005F0C2FF05F0BAFF814605F0B7FFA0EBCC
:100BC8000907A84617E00134E4B2072C13D82146D8
:100BD8000AAB03EB840353F8280C01F0C5F9DFEDE9
:100BE800197AB4EEE70AF1EE10FA03DA072CEAD123
:100BF800B046E8E7A84688F00106134B9F428CBF31
:100C0800002606F0010646B105F090FFA0EB0907A3
:100C1800684601F0C9FA0024D7E7094B01221A7087
:100C28000B4B1B78002BFBD0372000F03FF8072038
:100C38000BB0BDEC028BBDE8F08300BF2F00002095
:100C48002C0000200000C842905F01002E00002008
:100C58002D00002008B5072000F0E6FDFEE70000A3
:100C680008B5042000F0E0FD034B1B78DBB2082B2D
:100C7800FAD0014B187808BD3200002008B50220D0
:100C880000F0F5F8032000F036F80C2000F00EF81C
:100C9800302000F00BF84FF4FA5005F04DFF3020EB
:100CA80000F029F8022000F0BFFDFEE730B583B060
:100CB800054651238DF8043000248DF8054001E0E5
:100CC8000134E4B2052C13D845FA04F313F0010FEC
:100CD800F6D0631CDBB243F028038DF805300A22F6
:100CE800022101A801F0FEFA0028E9D0012000E065
:100CF800002003B030BD30B583B0054651238DF8D0
:100D0800043000248DF8054001E00134E4B2052CDC
:100D180013D845FA04F313F0010FF6D0631CDBB2C5
:100D280043F030038DF805300A22022101A801F0B2
:100D3800D9FA0028E9D0012000E0002003B030BD36
:100D480000B583B051238DF8043018238DF8053091
:100D58000A22022101A801F0C5FA10B903B05DF812
:100D680004FB0320FAE710B582B0044652238DF83D
:100D7800043000238DF80530012812D002281CD039
:100D880010B1002002B010BD04238DF805300A22EE
:100D980002210DEB030001F0A5FA0028F2D0012092
:100DA800F0E705238DF805300A22022101A801F099
:100DB80099FA0028E6D02046E4E704238DF80530A8
:100DC8000A2202210DEB030001F08CFA08B1012080
:100DD800D8E79DF8053001338DF805300A22022145
:100DE80001A801F07FFA0028CCD00120CAE710B58D
:100DF80082B0044652238DF8043000238DF8053064
:100E0800012810D002281AD010B1002002B010BD5D
:100E18000A228DF80520022101A801F063FA0028B2
:100E2800F4D00120F2E70B238DF805300A220221C5
:100E380001A801F057FA0028E8D02046E6E70A2280
:100E48008DF80520022101A801F04CFA08B1012013
:100E5800DCE79DF8053001338DF805300A220221C0
:100E680001A801F03FFA0028D0D00120CEE710B544
:100E780082B0044652238DF8043000238DF80530E3
:100E8800012811D002281BD010B1002002B010BDDB
:100E980006238DF805300A22022101A801F022FA62
:100EA8000028F3D00120F1E707238DF805300A2246
:100EB800022101A801F016FA0028E7D02046E5E74C
:100EC80006238DF805300A22022101A801F00AFA4A
:100ED80008B10120DAE79DF8053001338DF80530B7
:100EE8000A22022101A801F0FDF90028CED0012034
:100EF800CCE700B583B052238DF8043008238DF871
:100F080005300A22022101A801F0ECF910B903B05A
:100F18005DF804FB0320FAE700B583B052238DF88F
:100F2800043000238DF805300A22022101A801F0BF
:100F3800D9F910B903B05DF804FB0320FAE700B54E
:100F480083B002238DF807300A2201210DF1070032
:100F580001F0C8F970B90A2201210DF1060001F06B
:100F6800D3F958B99DF80630022B18BF072B02D0C9
:100F7800022000E0032003B05DF804FB0320FAE739
:100F880008B505F0D3FD014B186008BDE403002047
:100F980084B000B591B00DF1480C8CE80F000DF14C
:100FA800040C0DF1480EBEE80F00ACE80F00BEE8D7
:100FB8000F00ACE80F009EE807008CE8070001ABC3
:100FC8000E93114B1B680D932C220C921344B3F50E
:100FD800002F14D200F044FD0028FBD10CA800F02B
:100FE800E5FD70B9084A13682C331360074A136883
:100FF8002C33136011B05DF804EB04B07047012086
:10100800F8E70220F6E700BFEC030020E803002021
:1010180030B58BB00446282200216846FFF7A0F9B6
:1010280005F084FD0D4B1D68451B684601F0BCF8B2
:1010380088B98646A4464CF8045B6C460FCCACE8ED
:101048000F000FCCACE80F0094E803008CE8030015
:1010580070460BB030BD4FF0030EF9E7E4030020F3
:1010680008B505F063FD024B1B68C01A08BD00BF38
:10107800E403002010B584B0002300930193029389
:101088000393684600F05AFE044630B900F0E8FCC5
:101098000028FBD0204604B010BD0224FAE7000067
:1010A80000B59DB04C22002109A8FFF759F920226C
:1010B800002101A8FFF754F9022005F0ABFC00233A
:1010C8000093274B9A6942F440429A619B6903F462
:1010D80040430093234BDA6A42F00102DA62DB6A8A
:1010E80003F001030093009B1D4B9B6913F4005F01
:1010F800FAD0012309934FF480330A930223129301
:1011080013931493502215921693179318930C2344
:10111800199300231A931B9309A803F095F9B8B9FA
:101128003F2301930323029300230393082304938B
:101138004023059306934FF4806207920893042195
:101148000DEB010003F0B4FD30B91DB05DF804FBF0
:101158000B2000F023FBE3E70B2000F01FFBF4E774
:10116800004802580004005800B5B1B0BC22002164
:1011780001A8FFF7F5F84FF4002301930223029327
:10118800102203920422049205930693C023079326
:101198000DEB020004F028F810B931B05DF804FB3B
:1011A8000C2000F0FBFAF8E700B58BB0002307939A
:1011B800089309930093019302930393049305936F
:1011C80006932648264A0260436083600122C26073
:1011D8000421016103754375826103774362836269
:1011E800C3620363436380F8383002F0C9F828BB50
:1011F8000023079307A9194802F0EEF910BB194B11
:101208000093062301930023029340F2FF72039296
:101218000422049205938DF8193069460F4801F0AD
:10122800DBFB98B9104B00930C23019369460B48DC
:1012380001F0D2FB70B90BB05DF804FB1C2000F084
:10124800ADFAD5E71C2000F0A9FAD8E71C2000F079
:10125800A5FAE7E71C2000F0A1FAECE780030020DC
:10126800002002400004002A1000C01000B589B018
:101278000023019302930393049305930693079322
:101288002148224A0260436083600122C26004212F
:1012980001610375437582611D4A13774362836256
:1012A800C3620363436380F8383002F069F8F8B921
:1012B800184B0193062302930023039340F2FF7215
:1012C80004920422059206938DF81D300DEB02015D
:1012D8000D4801F081FB78B90F4B01930C23029361
:1012E80001A9094801F078FB50B909B05DF804FB81
:1012F8001D2000F053FADBE71D2000F04FFAEBE762
:101308001D2000F04BFAF0E71C03002000210240EA
:10131800800300200008302E0001802100B589B02C
:101328000023019302930393049305930693079371
:101338002148224A0260436083600122C26004217E
:1013480001610375437582611D4A137743628362A5
:10135800C3620363436380F8383002F011F8F8B9C8
:1013680001230193062302930023039340F2FF72A3
:1013780004920422059206938DF81D300DEB0201AC
:101388000D4801F029FB78B90E4B01930C23029309
:1013980001A9094801F020FB50B909B05DF804FB28
:1013A8001C2000F0FBF9DBE71C2000F0F7F9EBE765
:1013B8001C2000F0F3F9F0E7B802002000600258A2
:1013C800800300200200300408B51648164B03605D
:1013D800A3F17863A3F57D23A3F64F63436000234D
:1013E80083600122C260036143618361C361036258
:1013F80005F062FD50B900210A4805F037FF48B9E9
:101408000021084805F060FF40B908BD1E2000F023
:10141800C5F9F0E71E2000F0C1F9F1E71E2000F041
:10142800BDF9F2E76C0200200054004008B51448EA
:10143800144B03604FF4800343600023836007224A
:10144800C260036143614FF080628261C3610362DD
:1014580043628362C3624FF0804242638363C36323
:10146800036443648364C36403654365836502F06E
:1014780069FA00B908BD0F2000F090F9FAE700BF3B
:10148800E40100200038004008B51948194B0360F2
:101498004FF46123436000238360C36003610C221F
:1014A80042618361C36103624362836206F090FE16
:1014B80070B900210E4806F0D6FF68B900210C4823
:1014C80006F0F6FF60B90A4806F0AEFF60B908BD3D
:1014D800102000F063F9ECE7102000F05FF9EDE769
:1014E800102000F05BF9EEE7102000F057F9EEE766
:1014F800540100200010014008B51948194B036039
:101508004FF46123436000238360C36003610C22AE
:1015180042618361C36103624362836206F058FEDD
:1015280070B900210E4806F09EFF68B900210C48EA
:1015380006F0BEFF60B90A4806F076FF60B908BD3C
:101548001F2000F02BF9ECE71F2000F027F9EDE74A
:101558001F2000F023F9EEE71F2000F01FF9EEE747
:10156800C40000200044004008B51948194B036026
:101578004FF41653436000238360C36003610C2259
:1015880042618361C36103624362836206F020FEA5
:1015980070B900210E4806F066FF68B900210C48B2
:1015A80006F086FF60B90A4806F03EFF60B908BD3C
:1015B800192000F0F3F8ECE7192000F0EFF8EDE758
:1015C800192000F0EBF8EEE7192000F0E7F8EEE755
:1015D80034000020004C00402DE9F0418CB000247C
:1015E8000794089409940A940B94694BD3F8E02063
:1015F80042F00102C3F8E020D3F8E02002F0010233
:101608000192019AD3F8E02042F00202C3F8E020E8
:10161800D3F8E02002F002020292029AD3F8E02006
:1016280042F00402C3F8E020D3F8E02002F00402FC
:101638000392039AD3F8E02042F00802C3F8E020AE
:10164800D3F8E02002F008020492049AD3F8E020CC
:1016580042F01002C3F8E020D3F8E02002F01002B4
:101668000592059AD3F8E02042F08002C3F8E02002
:10167800D3F8E03003F080030693069B454F012220
:101688004FF4E051384605F0BEF94FF4E0530793A4
:101698001123089309940A9407A9384605F09CF881
:1016A80022461021384605F0AEF91023079301258C
:1016B800089509940A9407A9384605F08DF84FF45F
:1016C80060730793089409940A9407A9384605F0AB
:1016D80083F80795089409940A9407A9384605F0F1
:1016E8007BF82D4E2A464FF48051304605F08BF991
:1016F8004FF48058CDF81C80089509940A9407A9DE
:10170800304605F069F806F500662246414630463F
:1017180005F079F9CDF81C80089509940A9407A971
:10172800304605F059F82A464FF40051304605F086
:101738006AF94FF400530793089509940A9407A986
:10174800304605F049F822464FF46061304605F00E
:101758005AF94FF4606307930895099403230A9391
:1017680007A9304605F038F84FF46043079308940A
:10177800099407A9384605F02FF8079508940994A5
:1017880007A9304605F028F80CB0BDE8F08100BF85
:1017980000440258001002580004025800B583B0F3
:1017A8008DF8070072B600F033F8FEE708B580211F
:1017B800024805F021F900B1012008BD00100258C7
:1017C80010B5FFF7F3FF08B9422010BD0A4C0122FB
:1017D8001021204605F017F940F2E24005F0ACF977
:1017E80000221021204605F00EF9FFF7DFFF08B9A7
:1017F8004120EAE74420E8E70010025808B5012232
:101808004FF4E051014805F0FEF808BD00100258F9
:1018180008B5FFF7F3FF00224FF48061014805F097
:10182800F2F808BD0010025810B50446FFF7E6FFAD
:10183800601E06280BD8DFE800F0040B12192027D9
:101848002E0000224FF40061164805F0DCF810BDA8
:1018580000224FF48061134805F0D5F8F7E700221D
:101868004FF480510F4805F0CEF8F0E700224FF40E
:10187800C0510C4805F0C7F8E9E700224FF4A05121
:10188800084805F0C0F8E2E700224FF44061054837
:1018980005F0B9F8DBE700224FF4E051014805F004
:1018A800B2F8D4E700100258030C0B70030A4B700F
:1018B8008870704730B583B004238DF807300D4D1C
:1018C80000224FF48051284605F09DF80A23012292
:1018D8000DF10701084802F0E9F8044601224FF427
:1018E8008051284605F08FF814B9204603B030BD62
:1018F8000824FAE700040258E401002030B583B058
:1019080006238DF807300D4D00224FF480512846EC
:1019180005F079F80A2301220DF10701084802F0C1
:10192800C5F8044601224FF48051284605F06BF8AB
:1019380014B9204603B030BD0824FAE70004025861
:10194800E4010020F0B583B0044605238DF8033088
:10195800154E00224FF48051304605F054F8134FCD
:101968000A2301220DF10301384602F09FF80546CB
:101978008DF804000A23012204F10F01384602F011
:1019880007FC04468DF8050001224FF480513046CB
:1019980005F039F82DB914B9204603B0F0BD082474
:1019A800FAE70824F8E700BF00040258E401002021
:1019B800F0B585B08DF8070050238DF80830012365
:1019C8008DF80930234B1B78DBB3234E00224FF4EC
:1019D8008051304605F017F8204C0A23012202A94D
:1019E800204602F063F805468DF80C0001224FF4FA
:1019F8008051304605F007F800224FF480513046F8
:101A080005F001F80A2301220DF10901204602F030
:101A18004DF807468DF80D000A2301220DF1070144
:101A2800204602F043F804468DF80E0001224FF4D8
:101A38008051304604F0E7FF3DB947B914B1082496
:101A480000E00524204605B0F0BD0824FAE7082484
:101A5800F8E700BFF003002000040258E40100206A
:101A680000B585B0FF238DF80F306846FFF76AFF91
:101A780030B99DF80F3013F0010F05D0012000E0B8
:101A8800012005B05DF804FB0020FAE7014B0122B4
:101A98001A707047F0030020014B00221A7070473B
:101AA800F003002038B50446407BDC2825D800F038
:101AB8003800A37B43EA0005237BD3B9FFF7E6FF91
:101AC8002046FFF73FFFB8B9E37BFF2B17D0FFF79E
:101AD800F1FEB0B92846FFF76BFFFFF7C1FF0028FA
:101AE800FBD12046FFF72EFFE37BAB4204D00F204B
:101AF80002E0FFF7D1FF002038BD0A20FCE70F20E5
:101B0800FAE70E20F8E70000F0B585B08DF8071069
:101B180002238DF80B3002A94068FFF7C5FE204B61
:101B28001B7893B3FFF7EAFE98BB1E4F00224FF4D1
:101B38008051384604F067FF1B4C0A2301220DF13F
:101B48000B01204601F0B2FF05468DF80C000A2370
:101B5800032202A9204601F0A9FF06468DF80D00D0
:101B6800642301220DF10701204601F09FFF04467E
:101B78008DF80E0001224FF48051384604F043FFDF
:101B88004DB956B914B1082400E00524204605B023
:101B9800F0BD0924FAE70824F8E70824F6E700BFAF
:101BA800F003002000040258E40100202DE9F04F62
:101BB80083B00446AD238DF803300668876869460C
:101BC8004068FFF771FE5A4B1B78002B00F0988095
:101BD8002368012B4BD0002B00F09480FFF78EFE7A
:101BE800002840F09480DFF84CA100224FF4805187
:101BF800504604F008FFDFF840910A2301220DF156
:101C08000301484601F052FF05468DF804000A23F7
:101C180003226946484601F049FF80468DF80500D1
:101C28000A2302223946484601F040FF81468DF8D2
:101C3800060001224FF48051504604F0E4FE002DC6
:101C480067D1B8F1000F66D1B9F1000F65D14FF037
:101C5800020A236853453DD90237FFF701FF68B1EF
:101C6800B5425CD20135012004F066FFF5E7A368B0
:101C780019782046FFF748FF054644E0DFF8B4B07E
:101C880000224FF48051584604F0BDFEDFF8A890BA
:101C98000A2301220DF10301484601F007FF80469F
:101CA8008DF804000A2302223946484601F0FEFE58
:101CB80081468DF8050001224FF48051584604F002
:101CC800A2FEB8F1000F2CD1B9F1000F2BD10AF107
:101CD800020ABEE7FFF7C4FE0028FBD1FFF7EAFDC2
:101CE800054610BBFFF7BCFE0028FBD1236813F0A4
:101CF800010F08D079782046FFF706FF054602E075
:101D0800052500E00C25284603B0BDE8F08F09251D
:101D1800F9E70825F7E70825F5E70825F3E7042597
:101D2800F1E70B25EFE70B25EDE70D25EBE700BF06
:101D3800F003002000040258E401002070B582B0CE
:101D480060238DF80730124B1B78DBB1FFF7D6FD07
:101D58000446104E00224FF48051304604F053FEE2
:101D68000A2301220DF107010B4801F09FFE0546E9
:101D780001224FF48051304604F045FE35B914B1C4
:101D8800012400E00524204602B070BD0824FAE7CB
:101D9800F003002000040258E401002000B589B0D7
:101DA80000230193029303930493059306930793E7
:101DB800084B01930623029340F2FF730493042314
:101DC80005930DEB0301044800F006FE09B05DF829
:101DD80004FB00BF1000C0108003002000B589B0CC
:101DE80000230193029303930493059306930793A7
:101DF800084B01930623029340F2FF7304930423D4
:101E080005930DEB0301044800F0E6FD09B05DF809
:101E180004FB00BF0008302E1C03002000B589B069
:101E28000023019302930393049305930693079366
:101E3800084B01930623029340F2FF730493042393
:101E480005930DEB0301044800F0C6FD09B05DF8E9
:101E580004FB00BF000180211C03002000B589B0ED
:101E68000023019302930393049305930693079326
:101E7800012301930623029340F2FF730493042382
:101E880005930DEB0301034800F0A6FD09B05DF8CA
:101E980004FB00BFB802002000B589B000230193FD
:101EA800029303930493059306930793084B0193B6
:101EB8000623029340F2FF730493042305930DEB6A
:101EC8000301044800F088FD09B05DF804FB00BF79
:101ED80002003004B802002000B589B00023019345
:101EE800029303930493059306930793084B019376
:101EF8000623029340F2FF730493042305930DEB2A
:101F08000301044800F068FD09B05DF804FB00BF58
:101F18000004002A80030020124B00221A700422B9
:101F28001A72082119740C211976102183F82010CF
:101F3800142183F82810182183F830101C2183F805
:101F48003810242183F84010202183F848105A6063
:101F5800DA605A61DA615A62DA625A63DA635A6499
:101F6800DA647047F403002000EE100AB8EE400A65
:101F7800B7EEC00A9FED0A7B20EE070BB7EEC00B49
:101F8800032904D9DFED0A7A20EE270A7047B7EE55
:101F9800C00A9FED057B20EE070BB7EEC00B70471C
:101FA8006666666666660A3F757C2E8753F77340D9
:101FB8000000C843F0B583B005460027ADF80470AB
:101FC800754E3A464FF46061304604F01CFDFFF749
:101FD80083FF724C204601F02DF86421204600F062
:101FE8005FFC8DF80400204600F0F2FC28602046D3
:101FF80001F0F2F8FFF7D2FE204601F01BF8642149
:10200800204600F04DFC8DF80500204600F0E0FC6D
:10201800A861204601F0E0F83A464FF46061304686
:1020280004F0F1FC01224FF40071304604F0EBFC9F
:102038009DF80430002B40F09F809DF80530002B60
:1020480040F09C80FFF7CAFE554C204600F0F2FF96
:102058006421204600F024FC8DF80400204600F09E
:10206800B7FC2862204601F0B7F8FFF7D7FE2046F4
:1020780000F0E0FF6421204600F012FC8DF8050016
:10208800204600F0A5FCE861204601F0A5F89DF87F
:102098000430002B75D19DF80530002B73D1FFF764
:1020A8001BFF3E4C204600F0C5FF6421204600F08F
:1020B800F7FB8DF80400204600F08AFC6860204693
:1020C80001F08AF83A464FF46061304604F09BFC10
:1020D80001224FF48061304604F095FC9DF80430ED
:1020E800002B52D1FFF7BAFE2E4C204600F0A2FF7B
:1020F8006421204600F0D4FB8DF80400204600F04F
:1021080067FC2861204601F067F8FFF7C5FE204606
:1021180000F090FF6421204600F0C2FB8DF8050016
:10212800204600F055FC6861204601F055F89DF8FE
:10213800043063BB9DF805305BBBFFF7CDFE174C41
:10214800204600F077FF6421204600F0A9FB8DF8B7
:102158000400204600F03CFCA860EF60204601F037
:102168003BF83A464FF460610B4804F04CFC9DF88C
:10217800040020B1112002E0112000E0112003B07A
:10218800F0BD1120FBE71120F9E71120F7E7112036
:10219800F5E71120F3E700BF000C02588003002088
:1021A8001C030020B802002008B5FFF703FF08BD94
:1021B80000B585B08DF80F008DF80E100A23009336
:1021C80001230DF10F02C0210A4804F0D3FE18B113
:1021D800012005B05DF804FB0A23009301230DF1EB
:1021E8000E02C021034804F0C5FE0028F1D00120EA
:1021F800EFE700BF6C02002030B585B00C461546ED
:102208008DF80F000A23009301230DF10F02C0215E
:10221800094804F0AFFE10B1012005B030BD0A2313
:1022280000932B462246C021034804F061FF002892
:10223800F3D00120F1E700BF6C02002008B5014689
:1022480001220420FFF7D8FF08BD08B50146012286
:102258002020FFF7D1FF08BD70B582B004460023E7
:102268008DF8073003781B01DBB245781D43C3782E
:10227800DB015BB2827843EA42135BB2027943EA3C
:102288008203DBB2417941EA03060DF10700FFF74B
:10229800DCFF034620B99DF80730412B03D0022309
:1022A800184602B070BD29460520FFF781FF034696
:1022B8000028F5D131460620FFF77AFF03460028AB
:1022C800EED1A01DFFF7BAFF0346E9E708B58AB2C9
:1022D8000146034806F054F800B1012008BD00BFCC
:1022E8005401002008B513468AB20146054805F096
:1022F80034FE034610B1032802D10423184608BD52
:102308000323FBE7C400002008B513468AB2014640
:10231800054805F08FFE034610B1032802D10423B7
:10232800184608BD0323FBE7C4000020FEE7FEE7CC
:10233800FEE7FEE7FEE770477047704708B504F010
:10234800E9FB08BD82B0074BD3F8F42042F0020243
:10235800C3F8F420D3F8F43003F002030193019B8F
:1023680002B070470044025800B58DB000230793AF
:10237800089309930A930B930368424A934208D03F
:10238800414A93422FD0414A934256D00DB05DF84E
:1023980004FB3F4A136801331360012B15D03D4BF2
:1023A800D3F8E02042F00402C3F8E020D3F8E0308C
:1023B80003F004030293029B11230793032308935A
:1023C80007A9354804F008FAE0E7324BD3F8D820DB
:1023D80042F02002C3F8D820D3F8D83003F0200305
:1023E8000193019BDBE72A4A136801331360012B31
:1023F80015D0284BD3F8E02042F00402C3F8E020BF
:10240800D3F8E03003F004030493049B22230793DA
:102418000323089307A9204804F0DEF9B6E71D4B0B
:10242800D3F8D82042F02002C3F8D820D3F8D83007
:1024380003F020030393039BDBE7164BD3F8E0205C
:1024480042F08072C3F8E020D3F8E02002F08072F6
:102458000592059AD3F8E02042F00402C3F8E02080
:10246800D3F8E03003F004030693069B4FF0806135
:10247800084604F07BFB4FF00061084604F076FB49
:1024880084E700BF0020024000210240006002589B
:1024980044040020004402580008025810B5B6B0A1
:1024A8000446002131913291339134913591BC2207
:1024B80002A8FDF755FF22681B4B9A4201D036B09F
:1024C80010BD082302930DEB030002F08DFE30BB14
:1024D800164CD4F8E03043F00203C4F8E030D4F8E6
:1024E800E03003F002030093009BC02331931223D2
:1024F80032930023339334930423359331A90C4842
:1025080004F06AF9D4F8E83043F40013C4F8E8306A
:10251800D4F8E83003F400130193019BCFE71220AD
:10252800FFF73CF9D4E700BF0054004000440258CC
:102538000004025810B5B6B004460021319132911A
:10254800339134913591BC2202A8FDF709FF226826
:10255800224B9A4201D036B010BD4FF480530293FB
:1025680002230B9310220C9204220D920E930F93C8
:102578004FF4406310934FF40053199302A802F0EC
:1025880033FE38BB164BD3F8E82042F48042C3F838
:10259800E820D3F8E82002F480420092009AD3F8A9
:1025A800E02042F00202C3F8E020D3F8E03003F064
:1025B80002030193019B4FF4444331930223329366
:1025C8000023339334930523359331A9054804F048
:1025D80003F9C0E71320FFF7E1F8D3E7003800401C
:1025E800004402580004025810B5BAB0044600214D
:1025F80035913691379138913991BC2206A8FDF76B
:10260800AFFE2368574A934207D0574A93423DD0BA
:10261800564A934274D03AB010BD0223069306A8D6
:1026280002F0E2FD70BB524BD3F8E82042F40022DE
:10263800C3F8E820D3F8E82002F400220092009AB8
:10264800D3F8E02042F00102C3F8E020D3F8E030EC
:1026580003F001030193019B03233593022336936F
:102668000024379438940823399335A9414804F055
:10267800B3F822460F21342001F0A8F8342001F0E5
:10268800B5F8C8E71420FFF789F8CCE701230693CB
:1026980006A802F0A9FD78BB354BD3F8F02042F02C
:1026A8001002C3F8F020D3F8F02002F010020292D2
:1026B800029AD3F8E02042F00102C3F8E020D3F8F0
:1026C800E03003F001030393039B4FF4C063359399
:1026D800022336930024379438940723399335A975
:1026E800244804F079F822460F21252001F06EF8DD
:1026F800252001F07BF88EE71420FFF74FF8CBE791
:102708000223069306A802F06FFD30BB184BD3F8DE
:10271800E82042F40032C3F8E820D3F8E82002F4B5
:1027280000320492049AD3F8E02042F00102C3F880
:10273800E020D3F8E03003F001030593059B0C2358
:10274800359302233693002337933893072339931D
:1027580035A9084804F040F85DE71420FFF71EF893
:10276800D4E700BF004C0040001001400044004086
:102778000044025800000258274AD2F8883043F42F
:102788007003C2F88830254B1B6803F00F03062B33
:1027980006D8224A136823F00F0343F00703136097
:1027A8001F4B1A6842F001021A6000221A61196868
:1027B8001C4A0A401A60194B1B6813F0080F06D010
:1027C800164A136823F00F0343F007031360144BF2
:1027D80000229A61DA611A62134999621349D9622F
:1027E800134919635A639963DA6319645A64196857
:1027F80021F4802119601A660E4B1A680E4B13409B
:10280800B3F1005F03D20D4B0122C3F808210C4B32
:1028180043F2D2021A60704700ED00E00020005237
:10282800004402587FEDF6EA000202020000FF01B0
:10283800800201010010005C0000FFFF00800051D1
:102848000040005210B430300B0A9B0003F00C0318
:10285800C45801F01F014FF01F0C0CFA01FC24EAC8
:102868000C0CC2F384628A404CEA0202C2505DF842
:10287800044B704710B414304B0E9B0003F0040354
:10288800C458C1F304514FF0070C0CFA01FC24EAB8
:102898000C0C8A404CEA0202C2505DF8044B7047A7
:1028A8002DE9F04104460E4603684649464A9342DC
:1028B80018BF8B4215D101F540718F6807F01F07CB
:1028C8002569082D14D0092F05D840F22122FA4095
:1028D80012F0010F07D18B6813F4404F2DD1042556
:1028E80006E03A49E9E7DB6813F0010F1FD1042538
:1028F80004F01CF9804623681A682A4223D1B6F1ED
:10290800FF3FF8D004F012F9A0EB0800B04201D85C
:10291800002EF0D123681B682B42ECD1636D43F085
:1029280004036365002384F85030032045E0636D99
:1029380043F02003636501203FE0636D43F020030B
:102948006365012039E0626D42F400726265DA68FD
:1029580012F4406F11D1627D7AB91A6812F0080F2B
:102968000BD0626D22F480726265626D12F4805F32
:1029780003D1626D42F001026265134A93420CD0A2
:102988001A4693420CD0092F05D840F22121F9406C
:1029980011F0010F04D1D26803E0A2F58072F0E7CC
:1029A800DA68082D06D012F4804F08D10C221A607C
:1029B800002002E008221A600020BDE8F081002013
:1029C800FBE700BF002002400021024000630258DC
:1029D8000368186C7047000070B582B0002301933B
:1029E80090F85030012B00F0248204460D46012354
:1029F80080F850300268936813F0040F09D0436DD3
:102A080043F0200343650120002384F8503002B0CE
:102A180070BD0B68C3F3130100293CD1C3F3846371
:102A280001219940D3690B43D3612A6869682068FA
:102A3800FFF708FF2068836813F0040300D0012320
:102A4800826812F0080200D0012252EA03062ED052
:102A58002268936813F0010F40F0E7812B68E8685B
:102A6800D2F8C010C3F3130621EA060100F01806D5
:102A7800AE48F0400340C3F313030B43C2F8C03021
:102A8800EA68AB4B9A4200F0A1802B68002BC0F299
:102A980053810020B8E793FAA3F333B1B3FA83F371
:102AA80003F01F0301219940BCE72023F8E7AA6837
:102AB8002968FFF7DFFE9F4B1B6803F07043B3F1F3
:102AC800805F0BD02268D36813F0100F3BD16B697D
:102AD800D268C2F382025200934006E06B69226812
:102AE800D268C2F38202520093402969042938D07F
:102AF8002268286802F1600C5CF8212002F000428C
:102B080000F0F840034313434CF821302368286948
:102B18006A7E012A1FD03146603353F8202022F004
:102B280000420A4343F8202021682A692B7E012BA2
:102B380014D00B6923F4F04302F01F0206FA02F2E4
:102B480013430B6184E76B69D268920802F00402B0
:102B580052009340C9E74FF00041DDE74FF40066AB
:102B6800E7E72268136E03F0F8432968B3EB816F37
:102B78001DD02268536E03F0F8432968B3EB816FC8
:102B88001AD02268936E03F0F8432968B3EB816F7B
:102B980017D02268D36E03F0F8432968B3EB816F2E
:102BA8007FF456AFD36E23F00043D36650E7136E1D
:102BB80023F000431366DCE7536E23F000435366AB
:102BC800DFE7936E23F000439366E2E720682B6803
:102BD800C3F313063EBB9A0E013202F01F02092A04
:102BE8008CBF00220122002A55D05EBB990E01310C
:102BF800890601F0F8418EBB4FEA936C0CF1010C89
:102C08000CF01F0C012202FA0CF21143AEBB9B0E12
:102C1800013303F01F0303EB43031B051943AA68A1
:102C2800FFF728FE31E793FAA3F24AB1B2FA82F22B
:102C3800013202F01F02092A8CBF00220122D2E7CA
:102C48002022F5E793FAA3F131B1B1FA81F101310C
:102C5800890601F0F841CEE72021F8E793FAA3F2BC
:102C68004AB1B2FA82F2013202F01F024FF0010CAF
:102C78000CFA02F2C9E72022F5E793FAA3F343B16D
:102C8800B3FA83F3013303F01F0303EB43031B057C
:102C9800C4E72023F6E7E6B9990E0131890601F069
:102CA800F84116BB4FEA936C0CF1010C0CF01F0CA9
:102CB800012202FA0CF2114336BB9B0E013303F0DA
:102CC8001F0303EB43031E3B1B0543F0007319432B
:102CD800A5E793FAA3F131B1B1FA81F1013189067F
:102CE80001F0F841DDE72021F8E793FAA3F24AB1B1
:102CF800B2FA82F2013202F01F024FF0010C0CFA14
:102D080002F2D8E72022F5E793FAA3F35BB1B3FA0E
:102D180083F3013303F01F0303EB43031E3B1B053F
:102D280043F00073D3E72023F3E700BFFFFF0F0052
:102D38000000FF470010005C22683F493F4882427C
:102D480018BF8A420CBF0121002118D13C4EB5683A
:102D580005F0E07CA9B13849886810F0010000D07E
:102D680001203649896811F0010100D00121014391
:102D78000CD0636D43F020036365012044E6314EB7
:102D8800E5E73149896811F0010FF2D12F498B42EB
:102D980007D02F498B4226D02E498B4234D00020B1
:102DA80032E615F4000FF4D1274B9A4201D00020E7
:102DB8002AE64CF40003B26822F0E0721343B360D1
:102DC800254B1B689B09254AA2FB03239B0901335A
:102DD8005B00019302E0019B013B0193019B002BE7
:102DE800F9D1002010E615F0807FD5D1164B9A4214
:102DF80001D0002008E64CF08073B26822F0E0723F
:102E08001343B3600020FFE515F4800F0FD10E4B7C
:102E18009A4201D00020F7E54CF48003B26822F012
:102E2800E0721343B3600020EEE50020ECE50020DB
:102E3800EAE50220EBE500BF002002400021024045
:102E4800002302400063025800600258000084CB4F
:102E5800000052C70000B8CF04000020632D3E05D3
:102E680070B504460068826812F0040200D001229E
:102E7800836813F0080300D00123134369D0C368A3
:102E880013F0007F04D0A28A40F201139A424AD07C
:102E9800022910D023689A6812F0040F09D09A68A2
:102EA80012F0020F05D198682B4A024042F0100236
:102EB8009A60012945D023689A6812F0080F09D052
:102EC8009A6812F0020F05D19868234A024042F02E
:102ED80020029A60022936D0032936D10C2503F046
:102EE80025FE064623689B682B4230D003F01EFE61
:102EF800831B052BF6D923689B682B42F2D0636DA0
:102F080043F010036365A36D43F00103A36501203B
:102F180020E0636D43F010036365A36D43F0010384
:102F2800A365012016E00023026812F0400F04D1C7
:102F38000A4A9342EDD80133F6E7402303600121A2
:102F4800A8E70425CBE70825C9E70425C7E700203B
:102F580000E0002070BD00BFC0FFFF7FFFDB0C005A
:102F680038B503689A6812F0010F56D1044699687B
:102F78002B4A114209D0436D43F010034365836D1A
:102F880043F001038365012048E09968254A0A4017
:102F980042F001029A6003F0C9FD05462368224900
:102FA800224A934218BF8B420DD102F500729268F3
:102FB80002F01F021D498B4207D01946994207D0DB
:102FC80032B100202AE01A4AF1E7A1F58071F5E74D
:102FD80023681A6812F0010F1DD19A6812F0010FC8
:102FE80005D199680F4A0A4042F001029A6003F03D
:102FF8009DFD401B0228EBD923681B6813F0010FC5
:10300800E6D1636D43F010036365A36D43F00103DC
:10301800A365012002E0002000E0002038BD00BFC9
:103028003F000080C0FFFF7F0020024000210240D7
:103038000063025838B5044603683E493E4A934245
:1030480018BF8B4252D102F50072956805F01F0532
:103058009B6813F0040F69D194F85030012B67D0A6
:10306800012384F850302046FFF77AFF002859D111
:10307800626DA0F60273134043F48073636523689E
:103088002D4A934234D01A46934200D01DB9626D3E
:1030980022F480126265626D12F4805F2BD0A26DFB
:1030A80022F00602A2651C221A60002384F8503020
:1030B8002368214A934221D01A46934221D0092DF0
:1030C80005D840F22121E94011F0010F19D1636DB3
:1030D80043F480136365D36813F0007F27D0636DD2
:1030E80023F4405343F48053636520E0134AACE76C
:1030F800A2F58072C8E70022A265D4E7A2F5807223
:10310800DBE7DA6812F0007F05D0626D22F44052E6
:1031180042F4805262659968094A0A4042F0040202
:103128009A6004E0002384F8503000E0022038BDA3
:103138000220FCE700200240002102400063025800
:10314800C0FFFF7F38B504460268936813F0020396
:1031580000D00123916811F0010F37D0002B37D12F
:10316800936803F00D03012B09D0636D43F010033E
:103178006365A36D43F00103A365012027E091680F
:10318800144B0B4043F002039360236803221A6038
:1031980003F0CCFC054623689B6813F0010F13D09D
:1031A80003F0C4FC401B0228F5D923689B6813F080
:1031B800010FF0D0636D43F010036365A36D43F016
:1031C8000103A365012002E0002000E0002038BDD3
:1031D8000020FCE7C0FFFF7F90F85030012B18D08B
:1031E80010B50446012380F850300321FFF738FE5C
:1031F80018B1002384F8503010BD2046FFF7A2FF15
:103208000028F6D1626D044B134043F00103636557
:10321800EFE70220704700BFFEEEFFFF38B5044617
:1032280003684F494F4A934218BF8B4223D14E4BF4
:103238009B6813F4403F14BF012300234BB301F0F4
:1032480081FE05466368B3F5003F1CD0B3F5403FE7
:103258001DD0B3F5803F16D003F082FC41F2030382
:10326800984257D8414B9D424ED92268936843F4FF
:103278008073936038BD3E4B9B6813F4403F14BF86
:1032880001230023DAE71B0CB5FBF3F5E4E7850817
:10329800E2E74FF4002002F095FF05466368B3F5B6
:1032A800101F2DD022D8B3F5E01F27D004D9B3F5CD
:1032B800001FD1D14509CFE7B3F5801F0DD006D93E
:1032C800B3F5A01F09D0B3F5C01F06D0C4E7B3F506
:1032D800002F02D0B3F5402F04D19B0C5B00B5FB47
:1032E800F3F5B9E7B3F5802FF7D0B5E7B3F5201FAD
:1032F80008D0B3F5301FAFD1050AADE70509ABE734
:103308008509A9E7C509A7E72268936823F48073AC
:103318009360AFE7174B9D4205D82268936823F462
:1033280040739360A6E7144B9D4207D822689368C0
:1033380023F4407343F4807393609BE70F4B9D42E3
:1033480007D82268936823F4407343F400739360AA
:1033580090E72268936843F4407393608AE700BF5C
:10336800002002400021024000230240002D3101CC
:103378000063025821BCBE0041787D0181F0FA0249
:1033880030B583B000230193002800F00A81044679
:10339800436DEBB123689A6812F0005F03D0996817
:1033A800814A0A409A6023689A6812F0805F1CD1AB
:1033B80099687E4A0A4042F080529A607C4B1B68AA
:1033C8009B097C4AA2FB03239B090133019309E073
:1033D800FEF7CAFF0023A36584F85030DAE7019BA3
:1033E800013B0193019B002BF9D12268936813F0EC
:1033F800805F40F09980636D43F010036365A36DAF
:1034080043F00103A3650125936813F0040300D07A
:103418000123616D11F0100F40F0BB80002B40F0CC
:10342800B880636D23F4817343F002036365936886
:1034380013F0010F1ED16049604B9A4218BF8A42AF
:103448000CBF0122002271D1896811F0010100D05E
:1034580001215A4B9B6813F0010300D001230B4351
:1034680008D1002A68D0564963688A6822F47C1219
:1034780013438B6003F074FB41F20303984202D9B3
:10348800A368102B5AD0627D236B43EA4233A268AB
:103498001343227F43EA0243227F012A59D0626AFA
:1034A80022B102F47872A16A0A4313432168C868FA
:1034B800444A02401A43CA6021688A6812F004022A
:1034C80000D001228B6813F0080300D001231343B6
:1034D8001BD1227DE36A43EA8232C8683A4B034033
:1034E8001343CB6094F83830012B37D02268136926
:1034F80023F0010313612268136923F07043616BA1
:103508000B4313612046FFF789FEE368012B37D090
:103518002268136B23F00F031363636D23F0030317
:1035280043F00103636539E000256DE7274B9B688D
:1035380013F0010F9ED194E7254995E7617D226B31
:1035480042EA41321343227F43EA024343F00C0329
:10355800A2E7226A013A43EA4243A0E720680269E7
:103568001C4B1340E26B511E226C42EA0142616C13
:103578000A43A16C0A43134343F001030361BAE70A
:1035880021680B6B23F00F03A269013A13430B6305
:10359800C3E7636D43F0100363650125284603B054
:1035A80030BD0125FAE700BFC0FFFF5FC0FFFF6F16
:1035B80004000020632D3E05002002400021024047
:1035C8000023024003C0F0FFFCBFFFFF0060025869
:1035D800006302581EF800FC90F85020012A00F001
:1035E800968030B49AB00346012280F85020002219
:1035F800169217920068474A904236D000220192EC
:10360800019A002A35D0926812F0040200D00122F3
:10361800846814F0040F6BD1002A69D13D4C3E4AEE
:10362800904218BFA0422DD102F500720868002808
:1036380039D0906820F440404C6820439060186866
:10364800344D354CA04218BFA8421DD1AC6814F0C7
:10365800010400D001243048806810F0010000D037
:103668000120204315D0002047E002F58072019226
:10367800C6E75A6D42F020025A65002283F85020AE
:1036880001203DE0254AD1E72548806810F0010F68
:1036980039D19468234820400C688968214308433D
:1036A8009060002029E0916821F4404191601968F8
:1036B800184C1948814218BFA1420ED1A06810F0D9
:1036C800010000D001201449896811F0010100D0DF
:1036D8000121014306D000200FE01149896811F04B
:1036E800010F12D190680F4901409160002004E059
:1036F8005A6D42F020025A650120002283F85020BA
:103708001AB030BC70470020F7E70020F5E7022028
:10371800704700BF002002400021024000630258A9
:1037280000600258E0F0FFFF002807DB00F01F02EE
:10373800400901239340024A42F82030704700BFF5
:1037480000E100E0002804DB0901C9B2044B195468
:10375800704700F00F000901C9B2024B19547047B5
:1037680000E400E014ED00E000B500F00700C0F14F
:10377800070CBCF1040F28BF4FF0040C031D062BE7
:103788000FD9C31E4FF0FF3E0EFA0CF021EA0001DC
:1037980099400EFA03FE22EA0E0241EA02005DF8A1
:1037A80004FB0023EEE700000649CB6823F4E0633E
:1037B8001B041B0C000200F4E0600343024A1A4396
:1037C800CA60704700ED00E00000FA0510B5044635
:1037D800054BD868C0F30220FFF7C6FF0146204614
:1037E800FFF7B0FF10BD00BF00ED00E008B5FFF720
:1037F8009BFF08BD0138B0F1807F0BD24FF0E0236A
:103808005861054AF02182F82310002098610722A8
:103818001A6170470120704700ED00E010B402689B
:103828005369916941F00801916101688A6942F020
:1038380010028A6101680A6822F001020A600168C0
:103848000C69294A22400A6101688A6822F44042C8
:103858008A6090F88120D2B2042A0DD013F0200F8C
:103868000AD0D0F8842042F08002C0F88420016891
:103878008A6942F020028A6190F88120D2B2032A34
:103888000DD013F0400F0AD0D0F8842042F0040283
:10389800C0F8842001688A6942F040028A6113F402
:1038A800007F0AD0D0F8842042F00102C0F88420BA
:1038B80001688A6942F400728A6113F4807F0AD031
:1038C800D0F8843043F00803C0F884300268936964
:1038D80043F4807393610023A0F86230A0F86A3043
:1038E8005DF8044B704700BF90FCFFFFC36B5B099A
:1038F800C0680830C00803FB000070472DE9F84392
:1039080080460F4616469946089D00E0BDB1D8F896
:1039180000305C6937EA04040CBF01230023B3427A
:103928000AD103F003F9A0EB0900A842EED3B5F1E0
:10393800FF3FEBD0032000E00020BDE8F883032020
:10394800FBE70000002800F0A38070B504460023C0
:1039580083620568524B534E9D4218BFB54214BF4F
:103968000126002607D0A3F574439D4203D0C368FF
:103978000F2B00F28F802046FFF7B8FF2EB14A4B7D
:103988009D4202D0082800F28780454A454B9D4257
:1039980018BF954203D003F580639D4201D11028DA
:1039A8007CD894F88130002B59D0022384F88130D8
:1039B8002268136823F00103136023689A6802F4ED
:1039C800F812A169B1F1806F4FD0E369A16A0B4386
:1039D8001343E26B1343E16822680B439360636B04
:1039E800626A1343A26B1343A26913432269134308
:1039F80062691343226A134362681343E26C1343F8
:103A0800A2681343A26C1343A16D22680B43D360D1
:103A180063686BB92268936823F4C05343F4006366
:103A280093602268936823F4C06343F480639360CF
:103A38002268136D23F001031365636813F4800F84
:103A480006D02268D36823F00043616D0B43D3602E
:103A58000020C4F88400012384F8813070BD84F804
:103A680080302046FEF766FD9FE76168B1F5800F5C
:103A780006D00029A9D1A16BB1F1805FA5D102E0E0
:103A8800A06B0028F5D1196841F4805119609CE7B2
:103A9800012070470120E1E70120DFE70120DDE791
:103AA8000030014000380040003C00402DE9F0475C
:103AB80082B01D46D0F8008090F88030012B00F0CD
:103AC800538104468A469146012380F8803003F0EA
:103AD8002DF8074694F88160F6B2012E32D1B9F17B
:103AE800000F18BFBAF1000F34D0032384F88130D7
:103AF8000023C4F88430C4F85CA0A4F86090A4F84B
:103B080062906366A4F86830A4F86A306367236734
:103B1800A368B3F5C02F21D022685168934B0B409E
:103B280049EA030353602268136843F001031360F2
:103B38006368B3F5800F17D0E3680F2B23D8072BE2
:103B480059D8B8E0002384F880300226304602B005
:103B5800BDE8F087002384F88030F7E7226813680F
:103B680043F400631360D7E72268136843F40073D3
:103B78001360E1E702F0DAFFC01BA84202D3B5F1F7
:103B8800FF3F19D1C5B1B4F862309BB2002B00F0E9
:103B9800CD8023685A6912F0020FEBD0E26D1268EB
:103BA8001A62E36D0433E365B4F8622092B2013A15
:103BB80092B2A4F86220E6E72046FFF72FFE002322
:103BC80084F88030D4F8843043F48073C4F88430A7
:103BD800012384F881300326B8E7E36D1B88A8F831
:103BE8002030E36D0233E365B4F862309BB2013BE9
:103BF8009BB2A4F86230B4F862309BB2002B00F09C
:103C080095802268536913F0020F15D0B4F862301A
:103C18009BB2012BE1D9E36B002BDED0E36D1B686F
:103C28001362E36D0433E365B4F862309BB2023B80
:103C38009BB2A4F86230DEE702F078FFC01BA8420E
:103C480002D3B5F1FF3F01D1002DD4D12046FFF7B3
:103C5800E5FD002384F88030D4F8843043F4807381
:103C6800C4F88430012384F8813003266EE7B4F861
:103C780062309BB2012B10D9E36B73B1E36D1B88E3
:103C8800A8F82030E36D0233E365B4F862309BB2E4
:103C9800023B9BB2A4F862300DE0E36D1B7882F81A
:103CA8002030E36D0133E365B4F862309BB2013B29
:103CB8009BB2A4F86230B4F862309BB2002B35D0C6
:103CC8002268536913F0020F15D0B4F862309BB222
:103CD800032BCCD9E36B402BC9D9E36D1B68136266
:103CE800E36D0433E365B4F862309BB2043B9BB2E6
:103CF800A4F86230DFE702F019FFC01BA84202D324
:103D0800B5F1FF3F01D1002DD5D12046FFF786FD43
:103D1800002384F88030D4F8843043F48073C4F8E6
:103D28008430012384F8813003260FE700953B4651
:103D3800002208212046FFF7E1FD28B1D4F884309D
:103D480043F02003C4F884302046FFF767FD0023C2
:103D580084F88030012384F88130D4F88430002B33
:103D68007FF4F4AE0026F1E60226EFE60000FFFF3E
:103D78002DE9F04782B01D460A9ED0F800A090F8C1
:103D88008030012B00F000820446884691460123CA
:103D980080F8803002F0CAFE074694F88130DBB222
:103DA8006268012B07D0B2F5800F3DD1A268002AC6
:103DB8003AD1042B38D1B9F1000F18BFB8F1000F70
:103DC80039D0002D37D094F88130DBB2042B02D0E3
:103DD800052384F881300023C4F88430C4F8649043
:103DE800A4F86A50A4F86850C4F85C80A4F862503B
:103DF800A4F860502367636722685168A3F580338D
:103E08000B402B4353602268136843F0010313608F
:103E18006368B3F5800F13D0E3680F2B68D8072BBE
:103E280000F2E780A84634E1002384F880300220BD
:103E380002B0BDE8F087002384F880300120F7E75E
:103E48002268136843F400731360E5E7236859692F
:103E580048F20802114213D0B8F1000F10D0626E78
:103E68001B6B1360636E04336366B4F86A309BB2ED
:103E7800013B9BB2A4F86A30B4F86A801FFA88F84C
:103E880002F054FEC01BB04202D3B6F1FF3F1ED170
:103E9800EEB145EA08039BB2002B00F05981236874
:103EA8005A6912F0020FD1D0002DCFD0E26D1268FE
:103EB8001A62E36D0433E365B4F862309BB2013BE8
:103EC8009BB2A4F86230B4F86250ADB2BEE72046A7
:103ED800FFF7A4FC002384F88030D4F8843043F43E
:103EE8008073C4F88430012384F8813003209FE76D
:103EF800A846CEE7E36D1B88AAF82030E36D0233AD
:103F0800E365B4F862309BB2013B9BB2A4F862301F
:103F1800B4F86250ADB223685A6912F4604F17D0F2
:103F2800B8F1000F14D05A6912F4004F3DD0626EF8
:103F38001B6B1360636E04336366B4F86A309BB21C
:103F4800023B9BB2A4F86A30B4F86A801FFA88F87A
:103F580002F0ECFDC01BB04202D3B6F1FF3F37D1EF
:103F6800002E35D045EA08039BB2002B00F0F08004
:103F780023685A6912F0020FCDD0002DCBD0012D45
:103F8800B8D9E26B002AB5D0E26D12681A62E36D07
:103F98000433E365B4F862309BB2023B9BB2A4F8E9
:103FA8006230B4F86250ADB2B5E7636EBAF830204B
:103FB8001A80636E02336366B4F86A309BB2013BC1
:103FC8009BB2A4F86A30B4F86A801FFA88F8BFE791
:103FD8002046FFF723FC002384F88030D4F884308F
:103FE80043F48073C4F88430012384F881300320BB
:103FF8001EE7A846B6E7012D13D9E26B8AB1E36D37
:104008001B88AAF82030E36D0233E365B4F8623008
:104018009BB2023B9BB2A4F86230B4F86250ADB2D6
:1040280010E0E26D127883F82020E36D0133E36538
:10403800B4F862309BB2013B9BB2A4F86230B4F88A
:104048006250ADB223685A6912F4604F17D0B8F1C4
:10405800000F14D05A6912F4004F3CD0626E1B6BEB
:104068001360636E04336366B4F86A309BB2043B32
:104078009BB2A4F86A30B4F86A801FFA88F802F094
:1040880055FDC01BB04202D3B6F1FF3F4FD1002E01
:104098004DD045EA08039BB2002B59D023685A69D2
:1040A80012F0020FCED0002DCCD0032DA3D9E26B95
:1040B800402AA0D9E26D12681A62E36D0433E36501
:1040C800B4F862309BB2043B9BB2A4F86230B4F8F7
:1040D8006250ADB2B6E75A6902F4C042B2F5005F69
:1040E80012D9636EBAF830201A80636E02336366A1
:1040F800B4F86A309BB2023B9BB2A4F86A30B4F8B9
:104108006A801FFA88F8BAE7626E93F83030137045
:10411800636E01336366B4F86A309BB2013B9BB2AD
:10412800A4F86A30B4F86A801FFA88F8A7E720462E
:10413800FFF774FB002384F88030D4F8843043F40C
:104148008073C4F88430012384F8813003206FE63B
:1041580000963B46002208212046FFF7CFFB28B1F6
:10416800D4F8843043F02003C4F884302046FFF7A5
:1041780055FB002384F88030012384F88130D4F87B
:1041880084301BB9002053E6022051E601204FE697
:104198002DE9F04782B004468A4691461D46D0F87C
:1041A80000804368B3F5800F42D094F88030012B2B
:1041B80000F04681012384F8803002F0B7FC0746FE
:1041C80094F88160F6B2012E3FD1B9F1000F18BF03
:1041D800BAF1000F41D0042384F881300023C4F8D9
:1041E8008430C4F864A0A4F86890A4F86A90E365E1
:1041F800A4F86030A4F8623023676367A368B3F556
:10420800C02F2ED0226851688E4B0B4049EA030319
:1042180053602268136843F0010313606368B3F5C1
:10422800800F24D0E3680F2B30D8072B67D8CBE05A
:104238008368002BB9D1042380F881300095134698
:104248000A46FFF795FD064603E0002384F8803010
:104258000226304602B0BDE8F087002384F880309B
:10426800F7E72268136823F400631360CAE722683B
:10427800136843F400731360D4E702F057FCC01BC3
:10428800A84202D3B5F1FF3F1AD1CDB1B4F86A30D4
:104298009BB2002B00F0C4802368596948F20802D9
:1042A8001142EAD0626E1B6B1360636E043363665F
:1042B800B4F86A2092B2013A92B2A4F86A20E5E70B
:1042C8002046FFF7ABFA002384F88030D4F8843016
:1042D80043F48073C4F88430012384F881300326C2
:1042E800B7E7636EB8F830201A80636E02336366EE
:1042F800B4F86A309BB2013B9BB2A4F86A30B4F8B8
:104308006A309BB2002B00F08B8023685A6912F444
:10431800604F11D05A6912F4004FE2D0626E1B6BE5
:104328001360636E04336366B4F86A309BB2023B71
:104338009BB2A4F86A30E2E702F0F8FBC01BA8427F
:1043480002D3B5F1FF3F01D1002DD8D12046FFF7A8
:1043580065FA002384F88030D4F8843043F48073FD
:10436800C4F88430012384F88130032671E75A6940
:1043780002F4C042B2F5005F0ED9636EB8F830207F
:104388001A80636E02336366B4F86A309BB2023BEC
:104398009BB2A4F86A3017E0626E93F8303013705D
:1043A800636E01336366B4F86A309BB2013B9BB21B
:1043B800A4F86A3008E002F0B9FBC01BA84202D397
:1043C800B5F1FF3F1BD1D5B1B4F86A309BB23BB30E
:1043D80023685A6912F4604FEDD05A6912F4004FFD
:1043E800C5D0626E1B6B1360636E04336366B4F8EA
:1043F8006A309BB2043B9BB2A4F86A30E4E72046DB
:10440800FFF70CFA002384F88030D4F8843043F4A2
:104418008073C4F88430012384F88130032618E7B8
:104428002046FFF7FBF9002384F88030012384F845
:104438008130D4F88430002B7FF40BAF002608E7D6
:10444800022606E70000FFFF002800F0188338B5B1
:104458000446036813F0010F25D0944A136903F04A
:104468003803926A102B15D0182B0FD06368B3F558
:10447800803F3FD0002B53D18C4B1A6822F48032F6
:104488001A601A6822F480221A6038E002F00302E7
:10449800022AEBD1854B1B6813F4003F03D06368F5
:1044A800002B00F0EE82236813F0020F00F0A180C9
:1044B8007E4A1369926A13F038035AD0182B55D0E4
:1044C800E368002B00F0DE8078490A6822F01902C0
:1044D80013430B6002F02AFB0546744B1B6813F06C
:1044E800040F40F0AD8002F021FB401B0228F4D9F4
:1044F8000320CDE26D4A136843F480331360636888
:104508002BB302F013FB0546684B1B6813F4003FFE
:10451800C9D102F00BFB401B6428F5D90320B7E290
:10452800B3F5A02F09D0614B1A6822F480321A60C3
:104538001A6822F480221A60E1E75C4B1A6842F498
:1045480080221A601A6842F480321A60D7E702F0B3
:10455800EDFA0546554B1B6813F4003FA3D002F053
:10456800E5FA401B6428F5D9032091E212F0030F05
:10457800A6D14E4B1B6813F0040F03D0E368002B41
:1045880000F08182494A136823F01903E1680B435C
:10459800136002F0CBFA0546444B1B6813F0040F76
:1045A80006D102F0C3FA401B0228F5D903206FE2B6
:1045B80002F0D6FA41F20303984212D82269402A3F
:1045C80007D03A494B6823F47C3343EA02334B6003
:1045D8000FE0364A536823F47C3343F400335360C6
:1045E80007E0324A536823F0FE43216943EA016336
:1045F8005360236813F0100F00F088802B4A13696A
:1046080003F03803926A082B56D0182B50D0E36970
:10461800002B00F0B880254A136843F0800313602C
:1046280002F084FA0546214B1B6813F4807F40F0A2
:10463800888002F07BFA401B0228F4D9032027E285
:1046480002F08EFA41F20303984212D82269402AF6
:1046580007D016494B6823F47C3343EA02334B6096
:10466800C7E7124A536823F47C3343F4003353609A
:10467800BFE70E4A536823F0FE43216943EA01630A
:104688005360B6E7094A136823F00103136002F088
:104698004DFA0546054B1B6813F0040FA9D002F02C
:1046A80045FA401B0228F5D90320F1E100440258DD
:1046B80002F00302012AAAD1A14B1B6813F4807FE0
:1046C80003D0E369802B40F0E08102F049FA41F21F
:1046D8000303984212D8226A202A07D098494B68C7
:1046E80023F0F84343EA82634B600FE0944A53682F
:1046F80023F0F84343F08043536007E0904AD368BF
:1047080023F07C53216A43EA0163D360236813F0E2
:10471800080F60D06369002B49D0894A536F43F072
:104728000103536702F002FA0546854B5B6F13F0ED
:10473800020F50D102F0FAF9401B0228F5D90320E4
:10474800A6E102F00DFA41F20303984212D8226A58
:10475800202A07D07A494B6823F0F84343EA82635A
:104768004B60D3E7764A536823F0F84343F080431D
:104778005360CBE7724AD36823F07C53216A43EA3B
:104788000163D360C2E76E4A136823F080031360A5
:1047980002F0CCF905466A4B1B6813F4807FB5D04C
:1047A80002F0C4F9401B0228F5D9032070E1644ADD
:1047B800536F23F00103536702F0B8F90546604BC5
:1047C8005B6F13F0020F06D002F0B0F9401B02280D
:1047D800F5D903205CE1236813F0200F29D0A369E1
:1047E8009BB1574A136843F48053136002F09EF953
:1047F8000546534B1B6813F4005F1AD102F096F973
:10480800401B0228F5D9032042E14D4A136823F4DE
:104818008053136002F08AF90546494B1B6813F46C
:10482800005F06D002F082F9401B0228F5D9032068
:104838002EE1236813F0040F21D1636A002B00F0E6
:1048480026813F4A126902F03802182A00F0EE80E9
:10485800022B79D03A4A136823F08073136002F070
:1048680065F90446364B1B6813F0007F00F0DC80C6
:1048780002F05CF9001B0228F4D9032008E1314A50
:10488800136843F48073136002F050F905462D4B0A
:104898001B6813F4807F06D102F048F9401B642896
:1048A800F5D90320F4E0A368012B0AD00BBB244BF5
:1048B8001A6F22F001021A671A6F22F004021A67AF
:1048C80004E01F4A136F43F001031367A36833B36F
:1048D80002F02CF905461A4B1B6F13F0020FACD1EE
:1048E80002F024F9401B41F288339842F3D903209F
:1048F800CEE0052B09D0124B1A6F22F001021A677D
:104908001A6F22F004021A67E0E70D4B1A6F42F0A3
:1049180004021A671A6F42F001021A67D6E702F01A
:1049280005F90546064B1B6F13F0020F85D002F000
:10493800FDF8401B41F288339842F3D90320A7E0E1
:104948000044025800480258594A136823F08073FB
:10495800136002F0EBF80546554B1B6813F0007F17
:1049680006D002F0E3F8401B0228F5D903208FE0B7
:104978004F4B996A4F4A0A40A16AE06A41EA00111E
:104988000A439A62226B013AC2F30802616B013949
:10499800490289B20A43A16B0139090401F4FE01F5
:1049A8000A43E16B0139090601F0FE410A431A6323
:1049B800DA6A22F00102DA62596B3F4A0A40A16CB6
:1049C80042EAC1025A63DA6A22F00C02216C0A43F5
:1049D800DA62DA6A22F00202616C0A43DA62DA6A9F
:1049E80042F48032DA62DA6A42F40032DA62DA6A6F
:1049F80042F48022DA62DA6A42F00102DA621A6864
:104A080042F080721A6002F091F80446284B1B6845
:104A180013F0007F06D102F089F8001B0228F5D9AF
:104A2800032035E0002033E0002031E0204A916A7D
:104A3800106B012B2DD001F00303A26A93422AD1F7
:104A4800C1F30511E36A994227D1C0F30802236B29
:104A5800013B9A4223D1C0F34622636B013B9A4241
:104A68001FD1C0F30642A36B013B9A421BD1C0F38E
:104A78000660E36B013B984217D1002008E0012053
:104A88007047012004E0012002E0012000E000203E
:104A980038BD0120FCE70120FAE70120F8E70120F2
:104AA800F6E70120F4E70120F2E70120F0E700BF74
:104AB800004402580CFCFFFF0700FFFF744B1B6902
:104AC80003F03803102B00F0DE80182B0FD00BB149
:104AD800704870476E4B1B6813F0200F00F0D580AC
:104AE8006B4B1B68C3F3C1036B48D840704710B4C5
:104AF800674B9A6A02F003029C6AC4F30510D96AEC
:104B080001F001015B6BC3F3CC0301FB03F307EE78
:104B1800903AF8EE677A14F47C7F00F09480012ACA
:104B280066D0022A00F09280E2B107EE100AF8EE91
:104B3800476A9FED5A6A86EE267A554B1B6BC3F37C
:104B4800080306EE903AF8EE666A9FED556A67EE3E
:104B5800867A76EEA77AF7EE006A77EEA67A27EEDF
:104B6800277A61E04A4B1B6813F0200F23D048498D
:104B78000A68C2F3C102484BD34007EE103AF8EE78
:104B8800476A07EE100AB8EE476A86EE867A0B6B1C
:104B9800C3F3080306EE903AF8EE666A9FED406AA2
:104BA80067EE867A76EEA77AF7EE006A77EEA67A4F
:104BB80027EE277A38E007EE100AF8EE476A9FEDED
:104BC800396A86EE267A324B1B6BC3F3080306EE6E
:104BD800903AF8EE666A9FED326A67EE867A76EE6C
:104BE800A77AF7EE006A77EEA67A27EE277A1BE017
:104BF80007EE100AF8EE476A9FED286A86EE267AD5
:104C0800234B1B6BC3F3080306EE903AF8EE666A73
:104C18009FED236A67EE867A76EEA77AF7EE006A4A
:104C280077EEA67A27EE277A194B1B6BC3F3462338
:104C3800013307EE903AF8EE677AC7EE276AFCEE82
:104C4800E67A17EE900A5DF8044B704707EE100AF3
:104C5800F8EE476A9FED146A86EE267A0C4B1B6BBA
:104C6800C3F3080306EE903AF8EE666A9FED0C6A05
:104C780067EE867A76EEA77AF7EE006A77EEA67A7E
:104C880027EE277AD0E7094870470348704700BFE6
:104C98000044025800093D000090D0030024744AE3
:104CA800000000390024744C001BB74B00366E011D
:104CB800002800F0328170B50D4604469B4B1B68F6
:104CC80003F00F038B420BD2984A136823F00F03AB
:104CD8000B431360136803F00F038B4240F01F81EE
:104CE800236813F0040F0CD02269914B9B6903F0E1
:104CF80070039A4205D98E498B6923F070031A43D1
:104D08008A61236813F0080F0CD06269884BDB694D
:104D180003F070039A4205D98549CB6923F07003E3
:104D28001A43CA61236813F0100F0CD0A269804B94
:104D3800DB6903F4E0639A4205D97D49CB6923F422
:104D4800E0631A43CA61236813F0200F0CD0E269AC
:104D5800774B1B6A03F070039A4205D974490B6AB2
:104D680023F070031A430A62236813F0020F0CD071
:104D7800E2686F4B9B6903F00F039A4205D96C49AF
:104D88008B6923F00F031A438A61236813F0010F1C
:104D980041D0674A936923F47063A1680B43936118
:104DA8006368022B0AD0032B27D0012B2CD0604A32
:104DB800126812F0040F06D10120ADE0126812F457
:104DC800003F00F0AE805A490A6922F007021343F7
:104DD8000B6101F0ABFE0646554B1B6903F0380327
:104DE8006268B3EBC20F16D001F0A0FE801B41F23F
:104DF80088339842F0D903208EE04D4A126812F0A9
:104E0800007FE0D1012087E0494A126812F4807FD0
:104E1800D9D1012080E0236813F0020F0CD0E2689A
:104E2800434B9B6903F00F039A4205D240498B69B3
:104E380023F00F031A438A613C4B1B6803F00F03EE
:104E4800AB420AD9394A136823F00F032B43136086
:104E5800136803F00F03AB4265D1236813F0040F06
:104E68000CD02269324B9B6903F070039A4205D239
:104E78002F498B6923F070031A438A61236813F062
:104E8800080F0CD062692A4BDB6903F070039A4261
:104E980005D22749CB6923F070031A43CA612368F6
:104EA80013F0100F0CD0A269214BDB6903F4E06307
:104EB8009A4205D21E49CB6923F4E0631A43CA61BA
:104EC800236813F0200F0CD0E269194B1B6A03F01A
:104ED80070039A4205D216490B6A23F070031A43ED
:104EE8000A62FFF7EBFD12498B69C3F30323114AEA
:104EF800D35C03F01F03D8408B6903F00F03D35C26
:104F080003F01F0320FA03F30B4A13600B4B1860DE
:104F18000B4B186801F0A8FD70BD012070470120F7
:104F2800FAE70120F8E70120F6E700BF0020005269
:104F3800004402587085000800000020040000208A
:104F48000C00002008B5FFF7B9FD0B4A9369C3F3BD
:104F580003230A49CB5C03F01F0320FA03F3926989
:104F680002F00F02885C00F01F0023FA00F0044AE8
:104F78001060044A136008BD004402587085000898
:104F8800000000200400002008B5FFF7DBFF054BF8
:104F9800DB69C3F30213044AD35C03F01F03D84050
:104FA80008BD00BF004402587085000808B5FFF727
:104FB800C9FF054BDB69C3F30223044AD35C03F042
:104FC8001F03D84008BD00BF004402587085000880
:104FD800404B9B6A03F00303032B79D070B5054659
:104FE8000E463C4A136823F08063136001F09EFD6F
:104FF8000446384B1B6813F0006F06D001F096FD8D
:10500800031B022BF5D9032070BD324B9A6A22F498
:105018007C32296842EA01329A626A68013AC2F32C
:105028000802A9680139490289B20A43E9680139C5
:10503800090401F4FE010A4329690139090601F04E
:10504800FE410A439A63DA6A22F0C00269690A4398
:10505800DA62DA6A22F02002A9690A43DA62DA6AB5
:1050680022F01002DA62D96B1B4A0A40E96942EA67
:10507800C102DA63DA6A42F01002DA62C6B91A4685
:10508800DB6A43F40023D362124A136843F0806357
:10509800136001F04BFD04460E4B1B6813F0006FC4
:1050A80014D101F043FD001B0228F5D90320ABE71A
:1050B800012E05D0074AD36A43F40013D362E3E70D
:1050C800044AD36A43F48013D362DDE700209BE7E8
:1050D80001207047004402580700FFFF404B9B6ABD
:1050E80003F00303032B79D070B505460E463C4AFE
:1050F800136823F08053136001F018FD0446384B01
:105108001B6813F0005F06D001F010FD031B022B93
:10511800F5D9032070BD324B9A6A22F07C72296857
:1051280042EA01529A626A68013AC2F30802A9681F
:105138000139490289B20A43E9680139090401F4CD
:10514800FE010A4329690139090601F0FE410A43B3
:105158001A64DA6A22F4406269690A43DA62DA6A2E
:1051680022F40072A9690A43DA62DA6A22F48072C8
:10517800DA62596C1B4A0A40E96942EAC1025A6478
:10518800DA6A42F48072DA62C6B91A46DB6A43F414
:105198008003D362124A136843F08053136001F00E
:1051A800C5FC04460E4B1B6813F0005F14D101F0D8
:1051B800BDFC001B0228F5D90320ABE7012E05D062
:1051C800074AD36A43F08073D362E3E7044AD36A99
:1051D80043F40003D362DDE700209BE7012070471A
:1051E800004402580700FFFFF8B50446036813F0AF
:1051F800006F30D0436EB3F5001F26D00ED8EBB148
:10520800B3F5801F07D102210430FFF7E1FE054600
:1052180045B12E4621E0012635461EE0B3F5401F74
:1052280009D10025954A136D23F44013616E0B4391
:105238001365002611E0012635460EE08F4AD36A31
:1052480043F40033D3620025ECE702212430FFF752
:1052580045FF0546DCE700263546236813F4807FC2
:1052680014D0636D042B30D8DFE803F0032228083C
:105278000800824AD36A43F40033D36245BB7F4AAD
:10528800136D23F00703616D0B431365236813F453
:10529800007F2FD0A36D802B49D01ED8002B40D083
:1052A800402B17D10021201DFFF792FE054619E07B
:1052B8000021201DFFF78CFE0546DFE7002104F1E1
:1052C8002400FFF70BFF0546D8E701263546DDE742
:1052D8002E46DBE7012635460CE0C02B02D0B3F59D
:1052E800807F1BD155BB654A136D23F4E073A16D14
:1052F8000B431365236813F4806F45D0D4F8A430AA
:10530800B3F5800F38D01ED883B3B3F5001F17D17B
:105318000021201DFFF75CFE05461AE001263546F0
:10532800E8E7564AD36A43F40033D362DAE7002148
:1053380004F12400FFF7D2FE0546D3E72E46D9E74D
:105348000126354620E0B3F5C00F02D0B3F5000FB3
:1053580009D1C5B9494A936D23F46003D4F8A41060
:105368000B43936510E0012635460DE0434AD36AA6
:1053780043F40033D362ECE7002104F12400FFF783
:10538800ADFE0546E5E72E46236813F4006F23D0EB
:10539800D4F8A830B3F1007F41D00DD8002B38D015
:1053A800B3F1807F05D10021201DFFF711FE0546CE
:1053B80008E0012635460FE0B3F1407F02D0B3F193
:1053C800806F23D1002D31D12C4A936D23F0E063F7
:1053D800D4F8A8100B439365236813F0007F2ED0F0
:1053E800A36C202B3FD026D833B1102B20D1234AD1
:1053F800D36A43F40033D362002D3AD11F4AD36CE9
:1054080023F03003A16C0B43D36418E00126354622
:10541800E2E71A4AD36A43F40033D362D2E70021A1
:1054280004F12400FFF75AFE0546CBE72E46D3E7E2
:105438000126354603E0302BDED0012635462368A9
:1054480013F4805F2BD0E36DB3F5005F4CD017D811
:10545800002B43D0B3F5805F0DD10021201DFFF74D
:10546800B7FD054612E00221201DFFF7B1FD0546F4
:10547800C2E72E46E3E70126354610E0004402580D
:10548800B3F5405F02D0B3F5804F24D1002D32D15F
:10549800754A136D23F4E043E16D0B4313652368EC
:1054A80013F4005F37D0236EB3F5003F51D027D8EF
:1054B8003BB1B3F5803F20D10121201DFFF788FDC6
:1054C8000546002D4CD1684A136D23F4E023216E64
:1054D8000B4313651FE001263546E0E7624AD36AAD
:1054E80043F40033D362D1E7002104F12400FFF72D
:1054F800F5FD0546CAE72E46D1E7012635460AE0FE
:10550800B3F5802FDDD0B3F5A02FDAD0B3F5403F47
:10551800D7D001263546236813F4804F30D0D4F80D
:10552800AC30B3F1005F44D01FD83BB1B3F1805F1A
:1055380018D10121201DFFF74BFD0546002D3FD155
:10554800494A936D23F0E043D4F8AC100B439365BC
:1055580016E0012104F12400FFF7C0FD0546B0E77D
:105568002E46D8E7012635460AE0B3F1804FE5D04C
:10557800B3F1A04FE2D0B3F1405FDFD0012635464A
:10558800236813F4004F09D0E36EB3F1805F19D09C
:10559800B3F1005F24D0D3B101263546236813F058
:1055A800807F32D0636C032B59D8DFE803F02621C3
:1055B8005226012104F12400FFF790FD0546BDE7BE
:1055C8002E46DDE7284AD36A43F40033D3626DB927
:1055D800254A136D23F04053E16E0B431365DDE755
:1055E8000121201DFFF7F4FC0546F0E72E46D5E71C
:1055F8001D4AD36A43F40033D3629DBB1A4AD36C65
:1056080023F00303616C0B43D364236813F4800F06
:105618002CD1236813F0010F00F0A380A36F282B6F
:1056280000F29D80DFE803F08B9B9B9B9B9B9B9BE1
:10563800869B9B9B9B9B9B9B949B9B9B9B9B9B9BCE
:105648008B9B9B9B9B9B9B9B8B9B9B9B9B9B9B9BC2
:105658008B000221201DFFF7BBFC0546CDE7012684
:105668003546D2E72E46D0E7004402588F4A1368E1
:1056780043F48073136001F059FA07468B4B1B689B
:1056880013F4807F05D101F051FAC01B6428F5D9C5
:105698000325002D4AD1864B1B6FD4F8B020534008
:1056A80013F4407F0CD0824B1A6F22F44072196FAA
:1056B80041F480311967196F21F4803119671A672D
:1056C800D4F8B030B3F5807F15D08DBBD4F8B030A6
:1056D80003F44072B2F5407F1ED0754A136923F473
:1056E8007C53136172490B6FD4F8B020C2F30B02DC
:1056F80013430B678DE701F019FA07466C4B1B6FD4
:1057080013F0020FE1D101F011FAC01B41F2883306
:105718009842F3D90325D8E76548026922F47C52F8
:10572800644901EA131313430361DBE72E4670E76C
:105738002E466EE70121201DFFF74AFC0546E5B914
:105748005B4A536D23F03803A16F0B43536508E0A0
:10575800012104F12400FFF7C1FC0546EFE701260B
:105768003546236813F0020F16D0636F052B27D830
:10577800DFE803F00A051F0A0A0A2E46F1E70121AD
:10578800201DFFF725FC0546EDB9494A536D23F066
:105798000703616F0B435365236813F0040F22D08E
:1057A800D4F89030052B43D8DFE803F0140F3B14EE
:1057B8001414012104F12400FFF790FC0546E3E7E7
:1057C80001263546E8E72E46E6E70121201DFFF7CA
:1057D800FFFB05467DBB364A936D23F00703D4F8DB
:1057E80090100B439365236813F0200F33D0D4F83F
:1057F8008C30B3F1005F4CD022D83BB1B3F1805F5D
:105808001BD10021201DFFF7E3FB0546002D47D1E2
:10581800274A536D23F0E043D4F88C100B435365AB
:1058280019E0012104F12400FFF758FC0546D1E7EF
:1058380001263546D7E72E46D5E7012635460AE044
:10584800B3F1804FE2D0B3F1A04FDFD0B3F1405FA6
:10585800DCD001263546236813F0400F37D0D4F842
:105868009830B3F5006F52D026D83BB1B3F5806FAE
:1058780018D10021201DFFF7ABFB0546002D4DD1A7
:105888000B4A936D23F4E053D4F898100B439365B7
:105898001DE0022104F12400FFF720FC0546B5E7CE
:1058A8002E46D8E70126354611E000BF00480258C9
:1058B80000440258CFFFFF00B3F5805FDED0B3F598
:1058C800A05FDBD0B3F5406FD8D0012635462368FA
:1058D80013F0800F32D0D4F89C30B3F5804F00F02D
:1058E8009D8020D83BB1B3F5005F19D10021201D60
:1058F800FFF76EFB0546002D40F09780A54A936D93
:1059080023F46043D4F89C100B43936516E00221FE
:1059180004F12400FFF7E2FB0546AFE72E46D6E781
:10592800012635460AE0B3F5004FE4D0B3F5204F21
:10593800E1D0B3F5C04FDED001263546236813F019
:10594800080F0CD0D4F88030B3F5805F6FD0914A3F
:10595800536D23F44053D4F880100B4353652368E8
:1059680013F0100F0CD0D4F89430B3F5807F67D0C3
:10597800884A936D23F44073D4F894100B439365CD
:10598800236813F4002F0BD0D4F8A030B3F5803F70
:105998006ED0B3F5003F61D0002B5AD001263546B2
:1059A800236813F4802F0CD0D4F88430B3F5001F8B
:1059B80076D0B3F5401F69D0B3F5801F61D00126BA
:1059C8003546236813F4803F07D0E36C002B70D072
:1059D800B3F5803F7BD001263546236813F0005F7E
:1059E8007DD1236813F4003F00F08680E36FB3F5A0
:1059F800807F00F0C6807CD9B3F5007F03D0B3F573
:105A0800407F40F0BC80002D40F0C180614A536D5A
:105A180023F44073E16F0B4353656DE0022104F1F9
:105A28002400FFF75BFB054665E72E4686E7022163
:105A380004F12400FFF752FB002888D0012686E7EE
:105A4800022104F12400FFF749FB002890D0012629
:105A58008EE70021201DFFF7BBFA05467DB94D4AA8
:105A6800936D23F44033D4F8A0100B43936597E764
:105A7800022104F12400FFF731FB0546EEE72E462C
:105A88008EE7444AD36A43F40033D3627DB9414A6E
:105A9800536D23F44013D4F884100B43536590E7F7
:105AA800012104F12400FFF719FB0546EEE72E4615
:105AB80087E7384AD36A43F40033D3626DB9354A6D
:105AC800D36C23F48033E16C0B43D36485E7022164
