:020000040800F2
:100000000000022069610008A90D0008B10D000878
:10001000B90D0008C10D0008C90D0008000000005E
:10002000000000000000000000000000D10D0008EA
:10003000D30D000800000000D50D0008D70D000802
:10004000B9610008B9610008B9610008B961000828
:10005000B9610008B9610008B9610008B961000818
:10006000B9610008B9610008B9610008B961000808
:10007000B9610008B9610008B9610008B9610008F8
:10008000B9610008B9610008B9610008B9610008E8
:10009000B9610008B9610008B9610008B9610008D8
:1000A000B9610008B9610008B9610008B9610008C8
:1000B000B9610008B9610008B9610008B9610008B8
:1000C000B9610008B9610008B9610008B9610008A8
:1000D000B9610008B9610008B9610008B961000898
:1000E000B9610008B961000800000000B9610008AA
:1000F000B9610008B9610008B9610008B961000878
:10010000B9610008B9610008B9610008B961000867
:10011000B9610008B9610008B9610008B961000857
:10012000B9610008B9610008B9610008B961000847
:10013000B9610008B9610008B9610008B961000837
:1001400000000000000000000000000000000000AF
:10015000B9610008B9610008B9610008B961000817
:10016000B9610008B9610008B9610008B961000807
:10017000B9610008B9610008B9610008B9610008F7
:10018000B9610008B9610008B9610008B9610008E7
:10019000B9610008B9610008B9610008B9610008D7
:1001A000B9610008B9610008B9610008B9610008C7
:1001B000B9610008B9610008B9610008B9610008B7
:1001C000B9610008B9610008B9610008B9610008A7
:1001D000B9610008B9610008B9610008B961000897
:1001E000B9610008B9610008B9610008B961000887
:1001F000B9610008B9610008B9610008B961000877
:10020000B9610008B9610008B9610008B961000866
:10021000B9610008B9610008B9610008B961000856
:10022000B9610008B9610008B96100080000000068
:10023000B9610008B961000800000000B961000858
:10024000B9610008B9610008B9610008B961000826
:10025000B9610008B9610008B9610008B961000816
:10026000B9610008B9610008B9610008B961000806
:10027000B9610008B9610008B96100080000000018
:10028000B9610008B9610008B96100080000000008
:0802900000000000B961000844
:1002980053B94AB9002908BF00281CBF4FF0FF31E5
:1002A8004FF0FF3000F00CB8ADF1080C6DE904CE4A
:1002B80005F0ACFFDDF804E0DDE9022304B0704787
:1002C800704700BF10B5054C237833B9044B13B100
:1002D8000448AFF300800123237010BD10000020F4
:1002E80000000000B464000808B5034B1BB10349C3
:1002F8000348AFF3008008BD000000001400002090
:10030800B464000800B58BB004F04CFE00F046F869
:1003180000F0A6F800F050FA00F0B2F900F0E4F9A5
:1003280000F016FA00F080F900F0BAF800F008F9C9
:1003380000F04AF900238DF824300693079302AAA7
:100348000892FF228DF82720C3228DF825208DF8EA
:10035800263002228DF800208DF801308DF8023009
:100368008DF803308DF804308DF805308DF806309F
:1003780006A800F02DFC48B900F05CFC684600F0C7
:10038800D5FC38B9012000F00FFBFEE7002000F093
:10039800EDFAF1E7152000F0E9FAF3E700B59DB0B2
:1003A8004C22002109A805F004FF2022002101A801
:1003B80005F0FFFE022004F0A3FD00230093264B66
:1003C8009A6942F440429A619B6903F4404300935E
:1003D800224BDA6A42F00102DA62DB6A03F00103B7
:1003E8000093009B1C4B9B6913F4005FFAD0012318
:1003F80009934FF480330A930223129313931493AF
:10040800502215921693179318930C2319930023CF
:100418001A931B9309A802F095FAB8B93F230193E0
:100428000323029300230393082304934023059393
:1004380006934FF480620792089304210DEB0100A4
:1004480002F0B4FE28B91DB05DF804FB00F08EFA86
:10045800E4E700F08BFAF6E7004802580004005879
:1004680000B5B1B0BC22002101A805F0A2FE4FF4EE
:100478000023019302230293102203920422049280
:1004880005930693C02307930DEB020003F02AF9A6
:1004980010B931B05DF804FB00F068FAF9E7000024
:1004A80000B58BB000230793089309930093019339
:1004B800029303930493059306931E481E4A026011
:1004C80043608360C360042202610375437501229F
:1004D8008261037743628362C3620363436380F884
:1004E800383001F0DDF9E0B90023079307A9114876
:1004F80001F002FBC0B9114B0093062301930023BE
:10050800029340F2FF7203920422049205938DF83D
:1005180019306946074800F0CDFE40B90BB05DF8C8
:1005280004FB00F023FADFE700F020FAE3E700F02D
:100538001DFAF3E714030020002002400004002AFB
:1005480000B589B0002301930293039304930593A4
:100558000693079319481A4A026043608360C36090
:1005680004220261037543750122826103774362A5
:100578008362C3620363436380F8383001F090F903
:10058800B0B9104B0193062302930023039340F262
:10059800FF7204920422059206938DF81D300DEB2C
:1005A8000201064800F086FE28B909B05DF804FB90
:1005B80000F0DCF9E5E700F0D9F9F6E7B002002031
:1005C800002102400008302E08B51548154B03607D
:1005D800A3F17863A3F57D23A3F64F63436000235B
:1005E80083600122C260036143618361C361036266
:1005F80004F0BAFE50B90021094805F08FF840B957
:100608000021074805F0B8F830B908BD00F0AEF988
:10061800F1E700F0ABF9F3E700F0A8F9F5E700BF60
:10062800640200200054004008B51348134B0360CF
:100638004FF480034360002383600722C260036194
:1006480043614FF080628261C361036243628362E7
:10065800C3624FF0804242638363C36303644364AD
:100668008364C36403654365836501F0E9FB00B9EE
:1006780008BD00F07BF9FBE7DC01002000380040F2
:1006880008B51748174B03604FF4612343600023F4
:100698008360C36003610C2242618361C3610362AA
:1006A8004362836205F099FC70B900210C4805F09B
:1006B8000CFD60B900210A4805F02CFD50B9084826
:1006C80005F0E4FC48B908BD00F050F9EDE700F08A
:1006D8004DF9EFE700F04AF9F1E700F047F9F2E7E2
:1006E8004C0100200010014008B51748174B036063
:1006F8004FF46123436000238360C36003610C22CD
:1007080042618361C36103624362836205F065FCF1
:1007180070B900210C4805F0D8FC60B900210A48DE
:1007280005F0F8FC50B9084805F0B0FC48B908BD18
:1007380000F01CF9EDE700F019F9EFE700F016F901
:10074800F1E700F013F9F2E7BC0000200044004094
:1007580008B51748174B03604FF41653436000233E
:100768008360C36003610C2242618361C3610362D9
:100778004362836205F031FC70B900210C4805F032
:10078800A4FC60B900210A4805F0C4FC50B9084827
:1007980005F07CFC48B908BD00F0E8F8EDE700F08A
:1007A800E5F8EFE700F0E2F8F1E700F0DFF8F2E74C
:1007B8002C000020004C00402DE9F0418CB00024B2
:1007C8000794089409940A940B94654BD3F8E02095
:1007D80042F00102C3F8E020D3F8E02002F0010261
:1007E8000192019AD3F8E02042F00202C3F8E02017
:1007F800D3F8E02002F002020292029AD3F8E02035
:1008080042F00402C3F8E020D3F8E02002F004022A
:100818000392039AD3F8E02042F00802C3F8E020DC
:10082800D3F8E02002F008020492049AD3F8E020FA
:1008380042F01002C3F8E020D3F8E02002F01002E2
:100848000592059AD3F8E02042F08002C3F8E02030
:10085800D3F8E03003F080030693069B414E012253
:100868004FF4E051304604F045FB4FF4E053079352
:100878001123089309940A9407A9304604F02AFA28
:1008880022464021304604F035FB402307930125DA
:10089800089509940A9407A9304604F01BFA4FF406
:1008A80060730793089409940A9407A9304604F0E2
:1008B80011FA0795089409940A9407A9304604F098
:1008C80009FA294F2A464FF48051384604F012FBA2
:1008D8004FF48058CDF81C80089509940A9407A90C
:1008E800384604F0F7F907F50067224641463846CE
:1008F80004F000FBCDF81C80089509940A9407A918
:10090800384604F0E7F92A464FF40051384604F017
:10091800F1FA4FF400530793089509940A9407A92C
:10092800384604F0D7F9224640F6FB71384604F001
:10093800E1FA40F6FB7307930895099403230A9399
:1009480007A9384604F0C6F94FF4604307930894A2
:10095800099407A9304604F0BDF90CB0BDE8F08150
:1009680000440258001002580004025800B583B031
:100978008DF8070072B600F00BF8FEE708B5012203
:100988004FF4E051014804F0B5FA08BD00100258D0
:1009980008B5FFF7F3FF00224FF48061014804F027
:1009A800A9FA08BD0010025810B50446FFF7E6FF83
:1009B800601E06280BD8DFE800F0040B1219202768
:1009C8002E0000224FF40061164804F093FA10BD7F
:1009D80000224FF48061134804F08CFAF7E70022F4
:1009E8004FF480510F4804F085FAF0E700224FF4E5
:1009F800C0510C4804F07EFAE9E700224FF4A051F8
:100A0800084804F077FAE2E700224FF4406105480D
:100A180004F070FADBE700224FF4E051014804F0DB
:100A280069FAD4E70010025830B583B004238DF872
:100A380007300D4D00224FF48051284604F05AFA31
:100A48000A2301220DF10701084801F0ADFA044616
:100A580001224FF48051284604F04CFA14B920467C
:100A680003B030BD0824FAE700040258DC01002076
:100A7800F0B583B0044605238DF80330154E0022E7
:100A88004FF48051304604F035FA134F0A230122FF
:100A98000DF10301384601F087FA05468DF8040088
:100AA8000A23012204F10F01384601F0EFFD044644
:100AB8008DF8050001224FF48051304604F01AFAEF
:100AC8002DB914B9204603B0F0BD0824FAE708246C
:100AD800F8E700BF00040258DC010020F0B585B03B
:100AE8008DF8070050238DF8083001238DF8093060
:100AF800234B1B78DBB3234E00224FF48051304642
:100B080004F0F8F9204C0A23012202A9204601F03A
:100B18004BFA05468DF80C0001224FF480513046FF
:100B280004F0E8F900224FF48051304604F0E2F96D
:100B38000A2301220DF10901204601F035FA074682
:100B48008DF80D000A2301220DF10701204601F05E
:100B58002BFA04468DF80E0001224FF480513046DE
:100B680004F0C8F93DB947B914B1082400E00524D8
:100B7800204605B0F0BD0824FAE70824F8E700BFCE
:100B88007803002000040258DC01002000B585B07D
:100B9800FF238DF80F306846FFF76AFF30B99DF8DC
:100BA8000F3013F0010F05D0012000E0012005B03F
:100BB8005DF804FB0020FAE7014B01221A70704728
:100BC80078030020014B00221A7070477803002038
:100BD80038B50446407BDC2825D800F03800A37BD4
:100BE80043EA0005237BD3B9FFF7E6FF2046FFF76A
:100BF8003FFFB8B9E37BFF2B17D0FFF715FFB0B95C
:100C08002846FFF76BFFFFF7C1FF0028FBD12046FE
:100C1800FFF72EFFE37BAB4204D00F2002E0FFF783
:100C2800D1FF002038BD0A20FCE70F20FAE70E208C
:100C3800F8E70000124B00221A7004221A720821E9
:100C480019740C211976102183F82010142183F8C7
:100C58002810182183F830101C2183F8381024211B
:100C680083F84010202183F848105A60DA605A61EE
:100C7800DA615A62DA625A63DA635A64DA6470478C
:100C88007C03002000B585B08DF80F008DF80E109C
:100C98000A23009301230DF10F02C0210A4804F032
:100CA800C1FB18B1012005B05DF804FB0A230093CD
:100CB80001230DF10E02C021034804F0B3FB002804
:100CC800F1D00120EFE700BF6402002030B585B005
:100CD8000C4615468DF80F000A23009301230DF1E9
:100CE8000F02C021094804F09DFB10B1012005B096
:100CF80030BD0A2300932B462246C021034804F046
:100D08004FFC0028F3D00120F1E700BF6402002067
:100D180008B5014601220420FFF7D8FF08BD08B531
:100D2800014601222020FFF7D1FF08BD70B582B02F
:100D3800044600238DF8073003781B01DBB24578A1
:100D48001D43C378DB015BB2827843EA42135BB28E
:100D5800027943EA8203DBB2417941EA03060DF1E5
:100D68000700FFF7DCFF034620B99DF80730412B49
:100D780003D00223184602B070BD29460520FFF7AC
:100D880081FF03460028F5D131460620FFF77AFF98
:100D980003460028EED1A01DFFF7BAFF0346E9E796
:100DA80008B5FFF7E3FDFEE708B5FFF7DFFDFEE74F
:100DB80008B5FFF7DBFDFEE708B5FFF7D7FDFEE74F
:100DC80008B5FFF7D3FDFEE770477047704708B5D1
:100DD80004F016F908BD000082B0074BD3F8F420E0
:100DE80042F00202C3F8F420D3F8F43003F002030F
:100DF8000193019B02B070470044025800B58BB0C4
:100E080000230593069307930893099303682E4AD2
:100E1800934205D02D4A93422CD00BB05DF804FBC9
:100E28002B4A136801331360012B15D0294BD3F8D3
:100E3800E02042F00402C3F8E020D3F8E03003F0E9
:100E480004030293029B012305930323069305A938
:100E5800214803F03FFFE0E71E4BD3F8D82042F0CB
:100E68002002C3F8D820D3F8D83003F02003019328
:100E7800019BDBE7164A136801331360012B15D079
:100E8800144BD3F8E02042F00402C3F8E020D3F872
:100E9800E03003F004030493049B02230593032327
:100EA800069305A90C4803F015FFB6E7094BD3F8DC
:100EB800D82042F02002C3F8D820D3F8D83003F065
:100EC80020030393039BDBE700200240002102403C
:100ED800CC030020004402580008025810B5B6B0F0
:100EE8000446002131913291339134913591BC22DD
:100EF80002A805F05EF922681A4B9A4201D036B072
:100F080010BD082302930DEB030002F0EBFB30BB8E
:100F1800154CD4F8E03043F00203C4F8E030D4F8BC
:100F2800E03003F002030093009BC02331931223A7
:100F380032930023339334930423359331A90B4818
:100F480003F0C8FED4F8E83043F40013C4F8E830DE
:100F5800D4F8E83003F400130193019BCFE7FFF7BF
:100F680005FDD5E70054004000440258000402582B
:100F780010B5B6B0044600213191329133913491C5
:100F88003591BC2202A805F014F92268224B9A4236
:100F980001D036B010BD4FF48053029302230B9357
:100FA80010220C9204220D920E930F934FF440637B
:100FB80010934FF40053199302A802F093FB38BB27
:100FC800164BD3F8E82042F48042C3F8E820D3F85F
:100FD800E82002F480420092009AD3F8E02042F020
:100FE8000202C3F8E020D3F8E03003F002030193D3
:100FF800019B4FF4444331930223329300233393EC
:1010080034930523359331A9054803F063FEC0E7FF
:10101800FFF7ACFCD4E700BF00380040004402589A
:101028000004025810B5BAB0044600213591369133
:10103800379138913991BC2206A805F0BAF823688F
:101048004D4A934207D04D4A934234D04C4A93427A
:1010580062D03AB010BD0223069306A802F042FB04
:1010680030BB484BD3F8E82042F40022C3F8E8200C
:10107800D3F8E82002F400220092009AD3F8E02086
:1010880042F00102C3F8E020D3F8E03003F0010396
:101098000193019B0323359302233693002337934F
:1010A80038930823399335A9374803F013FED0E75E
:1010B800FFF75CFCD5E70123069306A802F012FBB4
:1010C80038BB304BD3F8F02042F01002C3F8F020C0
:1010D800D3F8F02002F010020292029AD3F8E0202E
:1010E80042F00102C3F8E020D3F8E03003F0010336
:1010F8000393039B4FF4C063359302233693002375
:10110800379338930723399335A91F4803F0E2FD35
:101118009FE7FFF72BFCD4E70223069306A802F00B
:10112800E1FA30BB174BD3F8E82042F40032C3F899
:10113800E820D3F8E82002F400320492049AD3F8A5
:10114800E02042F00102C3F8E020D3F8E03003F0D9
:1011580001030593059B0C23359302233693002343
:10116800379338930723399335A9074803F0B2FD1D
:101178006FE7FFF7FBFBD5E7004C0040001001408C
:10118800004400400044025800000258274AD2F8A0
:10119800883043F47003C2F88830254B1B6803F08D
:1011A8000F03062B06D8224A136823F00F0343F0D7
:1011B800070313601F4B1A6842F001021A600022ED
:1011C8001A6119681C4A0A401A60194B1B6813F007
:1011D800080F06D0164A136823F00F0343F00703DD
:1011E8001360144B00229A61DA611A6213499962FA
:1011F8001349D962134919635A639963DA63196405
:101208005A64196821F4802119601A660E4B1A680D
:101218000E4B1340B3F1005F03D20D4B0122C3F80C
:1012280008210C4B43F2D2021A60704700ED00E02F
:1012380000200052004402587FEDF6EA0002020244
:101248000000FF01800201010010005C0000FFFFA8
:10125800008000510040005210B430300B0A9B004F
:1012680003F00C03C45801F01F014FF01F0C0CFAD7
:1012780001FC24EA0C0CC2F384628A404CEA0202A4
:10128800C2505DF8044B704710B414304B0E9B00ED
:1012980003F00403C458C1F304514FF0070C0CFACF
:1012A80001FC24EA0C0C8A404CEA0202C2505DF8A8
:1012B800044B704770B582B00023019390F850300A
:1012C800012B00F0248204460D46012380F850309B
:1012D8000268936813F0040F09D0436D43F02003AC
:1012E80043650120002384F8503002B070BD0B68BC
:1012F800C3F3130100293CD1C3F38463012199404E
:10130800D3690B43D3612A6869682068FFF7A4FF93
:101318002068836813F0040300D00123826812F068
:10132800080200D0012252EA03062ED022689368F0
:1013380013F0010F40F0E7812B68E868D2F8C0107D
:10134800C3F3130621EA060100F01806AE48F04080
:101358000340C3F313030B43C2F8C030EA68AB4B36
:101368009A4200F0A1802B68002BC0F25381002024
:10137800B8E793FAA3F333B1B3FA83F303F01F0387
:1013880001219940BCE72023F8E7AA682968FFF7FC
:101398007BFF9F4B1B6803F07043B3F1805F0BD05A
:1013A8002268D36813F0100F3BD16B69D268C2F37F
:1013B80082025200934006E06B692268D268C2F349
:1013C8008202520093402969042938D0226828688B
:1013D80002F1600C5CF8212002F0004200F0F840B5
:1013E800034313434CF82130236828696A7E012A95
:1013F8001FD03146603353F8202022F000420A43C0
:1014080043F8202021682A692B7E012B14D00B6910
:1014180023F4F04302F01F0206FA02F213430B61B1
:1014280084E76B69D268920802F004025200934084
:10143800C9E74FF00041DDE74FF40066E7E72268AF
:10144800136E03F0F8432968B3EB816F1DD022684F
:10145800536E03F0F8432968B3EB816F1AD0226802
:10146800936E03F0F8432968B3EB816F17D02268B5
:10147800D36E03F0F8432968B3EB816F7FF456AF5E
:10148800D36E23F00043D36650E7136E23F0004376
:101498001366DCE7536E23F000435366DFE7936E71
:1014A80023F000439366E2E720682B68C3F3130632
:1014B8003EBB9A0E013202F01F02092A8CBF00229D
:1014C8000122002A55D05EBB990E0131890601F030
:1014D800F8418EBB4FEA936C0CF1010C0CF01F0C19
:1014E800012202FA0CF21143AEBB9B0E013303F04A
:1014F8001F0303EB43031B051943AA68FFF7C4FE48
:1015080031E793FAA3F24AB1B2FA82F2013202F059
:101518001F02092A8CBF00220122D2E72022F5E708
:1015280093FAA3F131B1B1FA81F10131890601F0E1
:10153800F841CEE72021F8E793FAA3F24AB1B2FACC
:1015480082F2013202F01F024FF0010C0CFA02F293
:10155800C9E72022F5E793FAA3F343B1B3FA83F37B
:10156800013303F01F0303EB43031B05C4E72023E8
:10157800F6E7E6B9990E0131890601F0F84116BB84
:101588004FEA936C0CF1010C0CF01F0C012202FACB
:101598000CF2114336BB9B0E013303F01F0303EB20
:1015A80043031E3B1B0543F000731943A5E793FA59
:1015B800A3F131B1B1FA81F10131890601F0F841A5
:1015C800DDE72021F8E793FAA3F24AB1B2FA82F2F2
:1015D800013202F01F024FF0010C0CFA02F2D8E7B8
:1015E8002022F5E793FAA3F35BB1B3FA83F301334F
:1015F80003F01F0303EB43031E3B1B0543F000737B
:10160800D3E72023F3E700BFFFFF0F000000FF47E9
:101618000010005C22683F493F48824218BF8A4256
:101628000CBF0121002118D13C4EB56805F0E07CC3
:10163800A9B13849886810F0010000D00120364966
:10164800896811F0010100D0012101430CD0636DBC
:1016580043F020036365012044E6314EE5E7314954
:10166800896811F0010FF2D12F498B4207D02F4919
:101678008B4226D02E498B4234D0002032E615F416
:10168800000FF4D1274B9A4201D000202AE64CF4EF
:101698000003B26822F0E0721343B360254B1B6865
:1016A8009B09254AA2FB03239B0901335B00019395
:1016B80002E0019B013B0193019B002BF9D1002023
:1016C80010E615F0807FD5D1164B9A4201D0002044
:1016D80008E64CF08073B26822F0E0721343B360FE
:1016E8000020FFE515F4800F0FD10E4B9A4201D070
:1016F8000020F7E54CF48003B26822F0E07213434F
:10170800B3600020EEE50020ECE50020EAE50220C9
:10171800EBE500BF00200240002102400023024008
:101728000063025800600258000084CB000052C7D2
:101738000000B8CF04000020632D3E0538B50446EC
:1017480003684F494F4A934218BF8B4223D14E4BEF
:101758009B6813F4403F14BF012300234BB301F0EF
:101768006FFE05466368B3F5003F1CD0B3F5403FF4
:101778001DD0B3F5803F16D003F054FC41F20303AB
:10178800984257D8414B9D424ED92268936843F4FA
:101798008073936038BD3E4B9B6813F4403F14BF81
:1017A80001230023DAE71B0CB5FBF3F5E4E7850812
:1017B800E2E74FF4002002F083FF05466368B3F5C3
:1017C800101F2DD022D8B3F5E01F27D004D9B3F5C8
:1017D800001FD1D14509CFE7B3F5801F0DD006D939
:1017E800B3F5A01F09D0B3F5C01F06D0C4E7B3F501
:1017F800002F02D0B3F5402F04D19B0C5B00B5FB42
:10180800F3F5B9E7B3F5802FF7D0B5E7B3F5201FA7
:1018180008D0B3F5301FAFD1050AADE70509ABE72E
:101828008509A9E7C509A7E72268936823F48073A7
:101838009360AFE7174B9D4205D82268936823F45D
:1018480040739360A6E7144B9D4207D822689368BB
:1018580023F4407343F4807393609BE70F4B9D42DE
:1018680007D82268936823F4407343F400739360A5
:1018780090E72268936843F4407393608AE700BF57
:10188800002002400021024000230240002D3101C7
:101898000063025821BCBE0041787D0181F0FA0244
:1018A80030B583B000230193002800F00A81044674
:1018B800436DEBB123689A6812F0005F03D0996812
:1018C800814A0A409A6023689A6812F0805F1CD1A6
:1018D80099687E4A0A4042F080529A607C4B1B68A5
:1018E8009B097C4AA2FB03239B090133019309E06E
:1018F800FFF784FA0023A36584F85030DAE7019BE8
:10190800013B0193019B002BF9D12268936813F0E6
:10191800805F40F09980636D43F010036365A36DA9
:1019280043F00103A3650125936813F0040300D075
:101938000123616D11F0100F40F0BB80002B40F0C7
:10194800B880636D23F4817343F002036365936881
:1019580013F0010F1ED16049604B9A4218BF8A42AA
:101968000CBF0122002271D1896811F0010100D059
:1019780001215A4B9B6813F0010300D001230B434C
:1019880008D1002A68D0564963688A6822F47C1214
:1019980013438B6003F046FB41F20303984202D9DC
:1019A800A368102B5AD0627D236B43EA4233A268A6
:1019B8001343227F43EA0243227F012A59D0626AF5
:1019C80022B102F47872A16A0A4313432168C868F5
:1019D800444A02401A43CA6021688A6812F0040225
:1019E80000D001228B6813F0080300D001231343B1
:1019F8001BD1227DE36A43EA8232C8683A4B03402E
:101A08001343CB6094F83830012B37D02268136920
:101A180023F0010313612268136923F07043616B9B
:101A28000B4313612046FFF789FEE368012B37D08B
:101A38002268136B23F00F031363636D23F0030312
:101A480043F00103636539E000256DE7274B9B6888
:101A580013F0010F9ED194E7254995E7617D226B2C
:101A680042EA41321343227F43EA024343F00C0324
:101A7800A2E7226A013A43EA4243A0E720680269E2
:101A88001C4B1340E26B511E226C42EA0142616C0E
:101A98000A43A16C0A43134343F001030361BAE705
:101AA80021680B6B23F00F03A269013A13430B6300
:101AB800C3E7636D43F0100363650125284603B04F
:101AC80030BD0125FAE700BFC0FFFF5FC0FFFF6F11
:101AD80004000020632D3E05002002400021024042
:101AE8000023024003C0F0FFFCBFFFFF0060025864
:101AF800006302581EF800FC90F85020012A00F0FC
:101B0800968030B49AB00346012280F85020002213
:101B1800169217920068474A904236D000220192E6
:101B2800019A002A35D0926812F0040200D00122EE
:101B3800846814F0040F6BD1002A69D13D4C3E4AE9
:101B4800904218BFA0422DD102F500720868002803
:101B580039D0906820F440404C6820439060186861
:101B6800344D354CA04218BFA8421DD1AC6814F0C2
:101B7800010400D001243048806810F0010000D032
:101B88000120204315D0002047E002F58072019221
:101B9800C6E75A6D42F020025A65002283F85020A9
:101BA80001203DE0254AD1E72548806810F0010F63
:101BB80039D19468234820400C6889682143084338
:101BC8009060002029E0916821F4404191601968F3
:101BD800184C1948814218BFA1420ED1A06810F0D4
:101BE800010000D001201449896811F0010100D0DA
:101BF8000121014306D000200FE01149896811F046
:101C0800010F12D190680F4901409160002004E053
:101C18005A6D42F020025A650120002283F85020B4
:101C28001AB030BC70470020F7E70020F5E7022023
:101C3800704700BF002002400021024000630258A4
:101C480000600258E0F0FFFF002804DB0901C9B278
:101C5800044B1954704700F00F000901C9B2024B38
:101C68001954704700E400E014ED00E000B500F0FE
:101C78000700C0F1070CBCF1040F28BF4FF0040C9B
:101C8800031D062B0FD9C31E4FF0FF3E0EFA0CF0B2
:101C980021EA000199400EFA03FE22EA0E0241EA07
:101CA80002005DF804FB0023EEE700000649CB685C
:101CB80023F4E0631B041B0C000200F4E060034300
:101CC800024A1A43CA60704700ED00E00000FA05B6
:101CD80010B50446054BD868C0F30220FFF7C6FFCD
:101CE80001462046FFF7B0FF10BD00BF00ED00E041
:101CF8000138B0F1807F0BD24FF0E0235861054ADC
:101D0800F02182F823100020986107221A61704799
:101D18000120704700ED00E010B402685369916932
:101D280041F00801916101688A6942F010028A61F4
:101D380001680A6822F001020A6001680C69294AF0
:101D480022400A6101688A6822F440428A6090F859
:101D58008120D2B2042A0DD013F0200F0AD0D0F877
:101D6800842042F08002C0F8842001688A6942F029
:101D780020028A6190F88120D2B2032A0DD013F094
:101D8800400F0AD0D0F8842042F00402C0F8842022
:101D980001688A6942F040028A6113F4007F0AD020
:101DA800D0F8842042F00102C0F8842001688A69D2
:101DB80042F400728A6113F4807F0AD0D0F884302C
:101DC80043F00803C0F884300268936943F48073D1
:101DD80093610023A0F86230A0F86A305DF8044BE4
:101DE800704700BF90FCFFFFC36B5B09C0680830F9
:101DF800C00803FB000070472DE9F84380460F46F2
:101E080016469946089D00E0BDB1D8F800305C69D7
:101E180037EA04040CBF01230023B3420AD103F0BC
:101E2800FBF8A0EB0900A842EED3B5F1FF3FEBD0D9
:101E3800032000E00020BDE8F8830320FBE7000052
:101E4800002800F0A38070B504460023836205686B
:101E5800524B534E9D4218BFB54214BF012600266F
:101E680007D0A3F574439D4203D0C3680F2B00F23B
:101E78008F802046FFF7B8FF2EB14A4B9D4202D013
:101E8800082800F28780454A454B9D4218BF954275
:101E980003D003F580639D4201D110287CD894F8C3
:101EA8008130002B59D0022384F8813022681368CE
:101EB80023F00103136023689A6802F4F812A169F9
:101EC800B1F1806F4FD0E369A16A0B431343E26B12
:101ED8001343E16822680B439360636B626A1343A0
:101EE800A26B1343A2691343226913436269134324
:101EF800226A134362681343E26C1343A2681343D4
:101F0800A26C1343A16D22680B43D36063686BB95D
:101F18002268936823F4C05343F4006393602268F3
:101F2800936823F4C06343F4806393602268136D5D
:101F380023F001031365636813F4800F06D0226849
:101F4800D36823F00043616D0B43D3600020C4F8CD
:101F58008400012384F8813070BD84F880302046E5
:101F6800FFF706F89FE76168B1F5800F06D00029F2
:101F7800A9D1A16BB1F1805FA5D102E0A06B0028C7
:101F8800F5D1196841F4805119609CE70120704728
:101F98000120E1E70120DFE70120DDE70030014013
:101FA80000380040003C00402DE9F04782B01D4653
:101FB800D0F8008090F88030012B00F0538104465F
:101FC8008A469146012380F8803003F025F80746B9
:101FD80094F88160F6B2012E32D1B9F1000F18BF22
:101FE800BAF1000F34D0032384F881300023C4F8F9
:101FF8008430C4F85CA0A4F86090A4F8629063668A
:10200800A4F86830A4F86A3063672367A368B3F557
:10201800C02F21D022685168934B0B4049EA030333
:1020280053602268136843F0010313606368B3F5D3
:10203800800F17D0E3680F2B23D8072B59D8B8E0A7
:10204800002384F880300226304602B0BDE8F087CD
:10205800002384F88030F7E72268136843F40063AC
:102068001360D7E72268136843F400731360E1E74D
:1020780002F0D2FFC01BA84202D3B5F1FF3F19D12D
:10208800C5B1B4F862309BB2002B00F0CD80236854
:102098005A6912F0020FEBD0E26D12681A62E36D12
:1020A8000433E365B4F8622092B2013A92B2A4F81C
:1020B8006220E6E72046FFF72FFE002384F88030F1
:1020C800D4F8843043F48073C4F88430012384F84E
:1020D80081300326B8E7E36D1B88A8F82030E36D4C
:1020E8000233E365B4F862309BB2013B9BB2A4F8BB
:1020F8006230B4F862309BB2002B00F09580226801
:10210800536913F0020F15D0B4F862309BB2012B5B
:10211800E1D9E36B002BDED0E36D1B681362E36D3E
:102128000433E365B4F862309BB2023B9BB2A4F877
:102138006230DEE702F070FFC01BA84202D3B5F19F
:10214800FF3F01D1002DD4D12046FFF7E5FD002344
:1021580084F88030D4F8843043F48073C4F8843031
:10216800012384F8813003266EE7B4F862309BB20D
:10217800012B10D9E36B73B1E36D1B88A8F82030ED
:10218800E36D0233E365B4F862309BB2023B9BB265
:10219800A4F862300DE0E36D1B7882F82030E36D1F
:1021A8000133E365B4F862309BB2013B9BB2A4F8FB
:1021B8006230B4F862309BB2002B35D02268536984
:1021C80013F0020F15D0B4F862309BB2032BCCD9B0
:1021D800E36B402BC9D9E36D1B681362E36D0433CD
:1021E800E365B4F862309BB2043B9BB2A4F862305A
:1021F800DFE702F011FFC01BA84202D3B5F1FF3F91
:1022080001D1002DD5D12046FFF786FD002384F8A3
:102218008030D4F8843043F48073C4F884300123C8
:1022280084F8813003260FE700953B4600220821F9
:102238002046FFF7E1FD28B1D4F8843043F02003AD
:10224800C4F884302046FFF767FD002384F8803007
:10225800012384F88130D4F88430002B7FF4F4AE65
:102268000026F1E60226EFE60000FFFF2DE9F04721
:1022780082B01D460A9ED0F800A090F88030012B4D
:1022880000F00082044688469146012380F8803099
:1022980002F0C2FE074694F88130DBB26268012B77
:1022A80007D0B2F5800F3DD1A268002A3AD1042B9D
:1022B80038D1B9F1000F18BFB8F1000F39D0002D8F
:1022C80037D094F88130DBB2042B02D0052384F890
:1022D80081300023C4F88430C4F86490A4F86A50AC
:1022E800A4F86850C4F85C80A4F86250A4F8605060
:1022F8002367636722685168A3F580330B402B433B
:1023080053602268136843F0010313606368B3F5F0
:10231800800F13D0E3680F2B68D8072B00F2E780F3
:10232800A84634E1002384F88030022002B0BDE8DA
:10233800F087002384F880300120F7E722681368CB
:1023480043F400731360E5E72368596948F208020B
:10235800114213D0B8F1000F10D0626E1B6B1360DE
:10236800636E04336366B4F86A309BB2013B9BB278
:10237800A4F86A30B4F86A801FFA88F802F04CFEB4
:10238800C01BB04202D3B6F1FF3F1ED1EEB145EA01
:1023980008039BB2002B00F0598123685A6912F098
:1023A800020FD1D0002DCFD0E26D12681A62E36D12
:1023B8000433E365B4F862309BB2013B9BB2A4F8E6
:1023C8006230B4F86250ADB2BEE72046FFF7A4FC15
:1023D800002384F88030D4F8843043F48073C4F840
:1023E8008430012384F8813003209FE7A846CEE794
:1023F800E36D1B88AAF82030E36D0233E365B4F877
:1024080062309BB2013B9BB2A4F86230B4F86250D0
:10241800ADB223685A6912F4604F17D0B8F1000FB3
:1024280014D05A6912F4004F3DD0626E1B6B1360D2
:10243800636E04336366B4F86A309BB2023B9BB2A6
:10244800A4F86A30B4F86A801FFA88F802F0E4FD4C
:10245800C01BB04202D3B6F1FF3F37D1002E35D0B2
:1024680045EA08039BB2002B00F0F08023685A6904
:1024780012F0020FCDD0002DCBD0012DB8D9E26BD0
:10248800002AB5D0E26D12681A62E36D0433E36581
:10249800B4F862309BB2023B9BB2A4F86230B4F845
:1024A8006250ADB2B5E7636EBAF830201A80636E39
:1024B80002336366B4F86A309BB2013B9BB2A4F85E
:1024C8006A30B4F86A801FFA88F8BFE72046FFF739
:1024D80023FC002384F88030D4F8843043F48073DC
:1024E800C4F88430012384F8813003201EE7A8460D
:1024F800B6E7012D13D9E26B8AB1E36D1B88AAF800
:102508002030E36D0233E365B4F862309BB2023BDE
:102518009BB2A4F86230B4F86250ADB210E0E26D3C
:10252800127883F82020E36D0133E365B4F8623054
:102538009BB2013B9BB2A4F86230B4F86250ADB2D2
:1025480023685A6912F4604F17D0B8F1000F14D0FD
:102558005A6912F4004F3CD0626E1B6B1360636EB5
:1025680004336366B4F86A309BB2043B9BB2A4F8A8
:102578006A30B4F86A801FFA88F802F04DFDC01B73
:10258800B04202D3B6F1FF3F4FD1002E4DD045EAFD
:1025980008039BB2002B59D023685A6912F0020F26
:1025A800CED0002DCCD0032DA3D9E26B402AA0D9E0
:1025B800E26D12681A62E36D0433E365B4F86230C1
:1025C8009BB2043B9BB2A4F86230B4F86250ADB23F
:1025D800B6E75A6902F4C042B2F5005F12D9636ED9
:1025E800BAF830201A80636E02336366B4F86A3032
:1025F8009BB2023B9BB2A4F86A30B4F86A801FFA17
:1026080088F8BAE7626E93F830301370636E01335E
:102618006366B4F86A309BB2013B9BB2A4F86A3097
:10262800B4F86A801FFA88F8A7E72046FFF774FB1A
:10263800002384F88030D4F8843043F48073C4F8DD
:102648008430012384F8813003206FE600963B46EE
:10265800002208212046FFF7CFFB28B1D4F88430A8
:1026680043F02003C4F884302046FFF755FB0023CD
:1026780084F88030012384F88130D4F884301BB981
:10268800002053E6022051E601204FE62DE9F047ED
:1026980082B004468A4691461D46D0F800804368B9
:1026A800B3F5800F42D094F88030012B00F04681BA
:1026B800012384F8803002F0AFFC074694F881606B
:1026C800F6B2012E3FD1B9F1000F18BFBAF1000FD1
:1026D80041D0042384F881300023C4F88430C4F83E
:1026E80064A0A4F86890A4F86A90E365A4F8603040
:1026F800A4F8623023676367A368B3F5C02F2ED0B0
:10270800226851688E4B0B4049EA030353602268E4
:10271800136843F0010313606368B3F5800F24D096
:10272800E3680F2B30D8072B67D8CBE08368002BE2
:10273800B9D1042380F88130009513460A46FFF783
:1027480095FD064603E0002384F8803002263046D3
:1027580002B0BDE8F087002384F88030F7E72268EC
:10276800136823F400631360CAE72268136843F40C
:1027780000731360D4E702F04FFCC01BA84202D3D9
:10278800B5F1FF3F1AD1CDB1B4F86A309BB2002B36
:1027980000F0C4802368596948F208021142EAD05F
:1027A800626E1B6B1360636E04336366B4F86A2051
:1027B80092B2013A92B2A4F86A20E5E72046FFF700
:1027C800ABFA002384F88030D4F8843043F4807363
:1027D800C4F88430012384F881300326B7E7636E98
:1027E800B8F830201A80636E02336366B4F86A3032
:1027F8009BB2013B9BB2A4F86A30B4F86A309BB232
:10280800002B00F08B8023685A6912F4604F11D0B6
:102818005A6912F4004FE2D0626E1B6B1360636E4C
:1028280004336366B4F86A309BB2023B9BB2A4F8E7
:102838006A30E2E702F0F0FBC01BA84202D3B5F110
:10284800FF3F01D1002DD8D12046FFF765FA0023BC
:1028580084F88030D4F8843043F48073C4F884302A
:10286800012384F88130032671E75A6902F4C042D3
:10287800B2F5005F0ED9636EB8F830201A80636E27
:1028880002336366B4F86A309BB2023B9BB2A4F889
:102898006A3017E0626E93F830301370636E01335C
:1028A8006366B4F86A309BB2013B9BB2A4F86A3005
:1028B80008E002F0B1FBC01BA84202D3B5F1FF3F0C
:1028C8001BD1D5B1B4F86A309BB23BB323685A69BF
:1028D80012F4604FEDD05A6912F4004FC5D0626E01
:1028E8001B6B1360636E04336366B4F86A309BB283
:1028F800043B9BB2A4F86A30E4E72046FFF70CFAE1
:10290800002384F88030D4F8843043F48073C4F80A
:102918008430012384F88130032618E72046FFF726
:10292800FBF9002384F88030012384F88130D4F83F
:102938008430002B7FF40BAF002608E7022606E759
:102948000000FFFF002800F0188338B5044603682C
:1029580013F0010F25D0944A136903F03803926AE3
:10296800102B15D0182B0FD06368B3F5803F3FD0DC
:10297800002B53D18C4B1A6822F480321A601A68E3
:1029880022F480221A6038E002F00302022AEBD116
:10299800854B1B6813F4003F03D06368002B00F0DD
:1029A800EE82236813F0020F00F0A1807E4A1369BB
:1029B800926A13F038035AD0182B55D0E368002BCD
:1029C80000F0DE8078490A6822F0190213430B6090
:1029D80002F022FB0546744B1B6813F0040F40F00D
:1029E800AD8002F019FB401B0228F4D90320CDE288
:1029F8006D4A136843F48033136063682BB302F0A5
:102A08000BFB0546684B1B6813F4003FC9D102F065
:102A180003FB401B6428F5D90320B7E2B3F5A02FC8
:102A280009D0614B1A6822F480321A601A6822F4BD
:102A380080221A60E1E75C4B1A6842F480221A602F
:102A48001A6842F480321A60D7E702F0E5FA0546C0
:102A5800554B1B6813F4003FA3D002F0DDFA401B6E
:102A68006428F5D9032091E212F0030FA6D14E4B4A
:102A78001B6813F0040F03D0E368002B00F0818279
:102A8800494A136823F01903E1680B43136002F005
:102A9800C3FA0546444B1B6813F0040F06D102F035
:102AA800BBFA401B0228F5D903206FE202F0BAFAFC
:102AB80041F20303984212D82269402A07D03A49C2
:102AC8004B6823F47C3343EA02334B600FE0364A09
:102AD800536823F47C3343F40033536007E0324AED
:102AE800536823F0FE43216943EA01635360236876
:102AF80013F0100F00F088802B4A136903F0380395
:102B0800926A082B56D0182B50D0E369002B00F09E
:102B1800B880254A136843F08003136002F07CFAFA
:102B28000546214B1B6813F4807F40F0888002F033
:102B380073FA401B0228F4D9032027E202F072FA44
:102B480041F20303984212D82269402A07D0164955
:102B58004B6823F47C3343EA02334B60C7E7124ADD
:102B6800536823F47C3343F400335360BFE70E4AC1
:102B7800536823F0FE43216943EA01635360B6E7D3
:102B8800094A136823F00103136002F045FA054669
:102B9800054B1B6813F0040FA9D002F03DFA401B47
:102BA8000228F5D90320F1E10044025802F003029B
:102BB800012AAAD1A14B1B6813F4807F03D0E369D3
:102BC800802B40F0E08102F02DFA41F20303984295
:102BD80012D8226A202A07D098494B6823F0F84374
:102BE80043EA82634B600FE0944A536823F0F8434A
:102BF80043F08043536007E0904AD36823F07C5346
:102C0800216A43EA0163D360236813F0080F60D098
:102C18006369002B49D0894A536F43F00103536716
:102C280002F0FAF90546854B5B6F13F0020F50D19D
:102C380002F0F2F9401B0228F5D90320A6E102F0C0
:102C4800F1F941F20303984212D8226A202A07D0E8
:102C58007A494B6823F0F84343EA82634B60D3E731
:102C6800764A536823F0F84343F080435360CBE738
:102C7800724AD36823F07C53216A43EA0163D36024
:102C8800C2E76E4A136823F08003136002F0C4F9A8
:102C980005466A4B1B6813F4807FB5D002F0BCF977
:102CA800401B0228F5D9032070E1644A536F23F0D2
:102CB8000103536702F0B0F90546604B5B6F13F0F0
:102CC800020F06D002F0A8F9401B0228F5D903200C
:102CD8005CE1236813F0200F29D0A3699BB1574A00
:102CE800136843F48053136002F096F90546534B7A
:102CF8001B6813F4005F1AD102F08EF9401B0228FA
:102D0800F5D9032042E14D4A136823F48053136038
:102D180002F082F90546494B1B6813F4005F06D0A0
:102D280002F07AF9401B0228F5D903202EE1236826
:102D380013F0040F21D1636A002B00F026813F4A6B
:102D4800126902F03802182A00F0EE80022B79D0BE
:102D58003A4A136823F08073136002F05DF9044661
:102D6800364B1B6813F0007F00F0DC8002F054F94A
:102D7800001B0228F4D9032008E1314A136843F400
:102D88008073136002F048F905462D4B1B6813F455
:102D9800807F06D102F040F9401B6428F5D9032052
:102DA800F4E0A368012B0AD00BBB244B1A6F22F066
:102DB80001021A671A6F22F004021A6704E01F4A18
:102DC800136F43F001031367A36833B302F024F9C8
:102DD80005461A4B1B6F13F0020FACD102F01CF919
:102DE800401B41F288339842F3D90320CEE0052BEB
:102DF80009D0124B1A6F22F001021A671A6F22F0DB
:102E080004021A67E0E70D4B1A6F42F004021A67D2
:102E18001A6F42F001021A67D6E702F0FDF805467C
:102E2800064B1B6F13F0020F85D002F0F5F8401B1C
:102E380041F288339842F3D90320A7E000440258AE
:102E480000480258594A136823F08073136002F04F
:102E5800E3F80546554B1B6813F0007F06D002F0D7
:102E6800DBF8401B0228F5D903208FE04F4B996A05
:102E78004F4A0A40A16AE06A41EA00110A439A628D
:102E8800226B013AC2F30802616B0139490289B227
:102E98000A43A16B0139090401F4FE010A43E16BFD
:102EA8000139090601F0FE410A431A63DA6A22F081
:102EB8000102DA62596B3F4A0A40A16C42EAC10238
:102EC8005A63DA6A22F00C02216C0A43DA62DA6A7F
:102ED80022F00202616C0A43DA62DA6A42F4803252
:102EE800DA62DA6A42F40032DA62DA6A42F480229A
:102EF800DA62DA6A42F00102DA621A6842F0807233
:102F08001A6002F089F80446284B1B6813F0007F0A
:102F180006D102F081F8001B0228F5D9032035E01C
:102F2800002033E0002031E0204A916A106B012B29
:102F38002DD001F00303A26A93422AD1C1F30511EF
:102F4800E36A994227D1C0F30802236B013B9A42F6
:102F580023D1C0F34622636B013B9A421FD1C0F3D1
:102F68000642A36B013B9A421BD1C0F30660E36B98
:102F7800013B984217D1002008E00120704701204A
:102F880004E0012002E0012000E0002038BD01201B
:102F9800FCE70120FAE70120F8E70120F6E7012025
:102FA800F4E70120F2E70120F0E700BF00440258EF
:102FB8000CFCFFFF0700FFFF744B1B6903F038038D
:102FC800102B00F0DE80182B0FD00BB17048704723
:102FD8006E4B1B6813F0200F00F0D5806B4B1B68FD
:102FE800C3F3C1036B48D840704710B4674B9A6A63
:102FF80002F003029C6AC4F30510D96A01F00101CA
:103008005B6BC3F3CC0301FB03F307EE903AF8EED6
:10301800677A14F47C7F00F09480012A66D0022A33
:1030280000F09280E2B107EE100AF8EE476A9FEDD1
:103038005A6A86EE267A554B1B6BC3F3080306EED5
:10304800903AF8EE666A9FED556A67EE867A76EEF4
:10305800A77AF7EE006A77EEA67A27EE277A61E07C
:103068004A4B1B6813F0200F23D048490A68C2F363
:10307800C102484BD34007EE103AF8EE476A07EE14
:10308800100AB8EE476A86EE867A0B6BC3F308031C
:1030980006EE903AF8EE666A9FED406A67EE867A29
:1030A80076EEA77AF7EE006A77EEA67A27EE277A09
:1030B80038E007EE100AF8EE476A9FED396A86EEA7
:1030C800267A324B1B6BC3F3080306EE903AF8EEF0
:1030D800666A9FED326A67EE867A76EEA77AF7EE31
:1030E800006A77EEA67A27EE277A1BE007EE100A29
:1030F800F8EE476A9FED286A86EE267A234B1B6B0B
:10310800C3F3080306EE903AF8EE666A9FED236A69
:1031180067EE867A76EEA77AF7EE006A77EEA67AF9
:1031280027EE277A194B1B6BC3F34623013307EEAF
:10313800903AF8EE677AC7EE276AFCEEE67A17EE61
:10314800900A5DF8044B704707EE100AF8EE476ADC
:103158009FED146A86EE267A0C4B1B6BC3F30803AB
:1031680006EE903AF8EE666A9FED0C6A67EE867A8C
:1031780076EEA77AF7EE006A77EEA67A27EE277A38
:10318800D0E7094870470348704700BF0044025819
:1031980000093D000090D0030024744A0000003963
:1031A8000024744C001BB74B00366E01002800F059
:1031B800328170B50D4604469B4B1B6803F00F0324
:1031C8008B420BD2984A136823F00F030B4313600A
:1031D800136803F00F038B4240F01F81236813F03C
:1031E800040F0CD02269914B9B6903F070039A423B
:1031F80005D98E498B6923F070031A438A612368C5
:1032080013F0080F0CD06269884BDB6903F0700378
:103218009A4205D98549CB6923F070031A43CA61DC
:10322800236813F0100F0CD0A269804BDB6903F4FC
:10323800E0639A4205D97D49CB6923F4E0631A43D8
:10324800CA61236813F0200F0CD0E269774B1B6A20
:1032580003F070039A4205D974490B6A23F070038E
:103268001A430A62236813F0020F0CD0E2686F4B0E
:103278009B6903F00F039A4205D96C498B6923F0C7
:103288000F031A438A61236813F0010F41D0674A7C
:10329800936923F47063A1680B4393616368022BFD
:1032A8000AD0032B27D0012B2CD0604A126812F0C9
:1032B800040F06D10120ADE0126812F4003F00F0BF
:1032C800AE805A490A6922F0070213430B6101F0E4
:1032D800A3FE0646554B1B6903F038036268B3EB3F
:1032E800C20F16D001F098FE801B41F28833984235
:1032F800F0D903208EE04D4A126812F0007FE0D129
:10330800012087E0494A126812F4807FD9D1012050
:1033180080E0236813F0020F0CD0E268434B9B69EE
:1033280003F00F039A4205D240498B6923F00F033B
:103338001A438A613C4B1B6803F00F03AB420AD95E
:10334800394A136823F00F032B431360136803F003
:103358000F03AB4265D1236813F0040F0CD0226928
:10336800324B9B6903F070039A4205D22F498B694F
:1033780023F070031A438A61236813F0080F0CD0F6
:1033880062692A4BDB6903F070039A4205D2274928
:10339800CB6923F070031A43CA61236813F0100F36
:1033A8000CD0A269214BDB6903F4E0639A4205D291
:1033B8001E49CB6923F4E0631A43CA61236813F0FA
:1033C800200F0CD0E269194B1B6A03F070039A4274
:1033D80005D216490B6A23F070031A430A62FFF7F5
:1033E800EBFD12498B69C3F30323114AD35C03F045
:1033F8001F03D8408B6903F00F03D35C03F01F034E
:1034080020FA03F30B4A13600B4B18600B4B186838
:1034180001F0A0FD70BD012070470120FAE70120EE
:10342800F8E70120F6E700BF0020005200440258E8
:10343800CC64000800000020040000200C000020DC
:1034480008B5FFF7B9FD0B4A9369C3F303230A498B
:10345800CB5C03F01F0320FA03F3926902F00F021A
:10346800885C00F01F0023FA00F0044A1060044A48
:10347800136008BD00440258CC6400080000002016
:103488000400002008B5FFF7DBFF054BDB69C3F339
:103498000213044AD35C03F01F03D84008BD00BFE1
:1034A80000440258CC64000808B5FFF7C9FF054B73
:1034B800DB69C3F30223044AD35C03F01F03D8403B
:1034C80008BD00BF00440258CC640008404B9B6A0A
:1034D80003F00303032B79D070B505460E463C4A2A
:1034E800136823F08063136001F096FD0446384B9F
:1034F8001B6813F0006F06D001F08EFD031B022B32
:10350800F5D9032070BD324B9A6A22F47C322968BF
:1035180042EA01329A626A68013AC2F30802A9686B
:103528000139490289B20A43E9680139090401F4F9
:10353800FE010A4329690139090601F0FE410A43DF
:103548009A63DA6A22F0C00269690A43DA62DA6ABF
:1035580022F02002A9690A43DA62DA6A22F010022C
:10356800DA62D96B1B4A0A40E96942EAC102DA63A6
:10357800DA6A42F01002DA62C6B91A46DB6A43F424
:103588000023D362124A136843F08063136001F08A
:1035980043FD04460E4B1B6813F0006F14D101F075
:1035A8003BFD001B0228F5D90320ABE7012E05D00F
:1035B800074AD36A43F40013D362E3E7044AD36AA1
:1035C80043F48013D362DDE700209BE701207047B6
:1035D800004402580700FFFF404B9B6A03F00303B7
:1035E800032B79D070B505460E463C4A136823F084
:1035F8008053136001F010FD0446384B1B6813F02C
:10360800005F06D001F008FD031B022BF5D903204B
:1036180070BD324B9A6A22F07C72296842EA0152E4
:103628009A626A68013AC2F30802A9680139490234
:1036380089B20A43E9680139090401F4FE010A4321
:1036480029690139090601F0FE410A431A64DA6A58
:1036580022F4406269690A43DA62DA6A22F4007283
:10366800A9690A43DA62DA6A22F48072DA62596C6A
:103678001B4A0A40E96942EAC1025A64DA6A42F41A
:103688008072DA62C6B91A46DB6A43F48003D362F1
:10369800124A136843F08053136001F0BDFC0446DE
:1036A8000E4B1B6813F0005F14D101F0B5FC001B32
:1036B8000228F5D90320ABE7012E05D0074AD36AC3
:1036C80043F08073D362E3E7044AD36A43F4000308
:1036D800D362DDE700209BE70120704700440258D1
:1036E8000700FFFFF8B50446036813F0006F30D0F9
:1036F800436EB3F5001F26D00ED8EBB1B3F5801F8B
:1037080007D102210430FFF7E1FE054645B12E46F8
:1037180021E0012635461EE0B3F5401F09D10025FA
:10372800954A136D23F44013616E0B43136500260D
:1037380011E0012635460EE08F4AD36A43F4003380
:10374800D3620025ECE702212430FFF745FF054648
:10375800DCE700263546236813F4807F14D0636DB8
:10376800042B30D8DFE803F0032228080800824A37
:10377800D36A43F40033D36245BB7F4A136D23F009
:103788000703616D0B431365236813F4007F2FD083
:10379800A36D802B49D01ED8002B40D0402B17D1C9
:1037A8000021201DFFF792FE054619E00021201D8B
:1037B800FFF78CFE0546DFE7002104F12400FFF740
:1037C8000BFF0546D8E701263546DDE72E46DBE741
:1037D800012635460CE0C02B02D0B3F5807F1BD103
:1037E80055BB654A136D23F4E073A16D0B43136554
:1037F800236813F4806F45D0D4F8A430B3F5800F54
:1038080038D01ED883B3B3F5001F17D10021201D6F
:10381800FFF75CFE05461AE001263546E8E7564AFA
:10382800D36A43F40033D362DAE7002104F12400B9
:10383800FFF7D2FE0546D3E72E46D9E701263546DF
:1038480020E0B3F5C00F02D0B3F5000F09D1C5B918
:10385800494A936D23F46003D4F8A4100B4393658D
:1038680010E0012635460DE0434AD36A43F400339D
:10387800D362ECE7002104F12400FFF7ADFE054612
:10388800E5E72E46236813F4006F23D0D4F8A83058
:10389800B3F1007F41D00DD8002B38D0B3F1807F31
:1038A80005D10021201DFFF711FE054608E001267D
:1038B80035460FE0B3F1407F02D0B3F1806F23D1DA
:1038C800002D31D12C4A936D23F0E063D4F8A81071
:1038D8000B439365236813F0007F2ED0A36C202B35
:1038E8003FD026D833B1102B20D1234AD36A43F4D2
:1038F8000033D362002D3AD11F4AD36C23F0300332
:10390800A16C0B43D36418E001263546E2E71A4A56
:10391800D36A43F40033D362D2E7002104F12400D0
:10392800FFF75AFE0546CBE72E46D3E70126354674
:1039380003E0302BDED001263546236813F4805F80
:103948002BD0E36DB3F5005F4CD017D8002B43D0D4
:10395800B3F5805F0DD10021201DFFF7B7FD0546A7
:1039680012E00221201DFFF7B1FD0546C2E72E46F1
:10397800E3E70126354610E000440258B3F5405FFE
:1039880002D0B3F5804F24D1002D32D1754A136D82
:1039980023F4E043E16D0B431365236813F4005FE0
:1039A80037D0236EB3F5003F51D027D83BB1B3F5DC
:1039B800803F20D10121201DFFF788FD0546002DFD
:1039C8004CD1684A136D23F4E023216E0B43136531
:1039D8001FE001263546E0E7624AD36A43F4003324
:1039E800D362D1E7002104F12400FFF7F5FD054675
:1039F800CAE72E46D1E7012635460AE0B3F5802FFF
:103A0800DDD0B3F5A02FDAD0B3F5403FD7D00126EB
:103A18003546236813F4804F30D0D4F8AC30B3F176
:103A2800005F44D01FD83BB1B3F1805F18D10121AA
:103A3800201DFFF74BFD0546002D3FD1494A936DE8
:103A480023F0E043D4F8AC100B43936516E0012152
:103A580004F12400FFF7C0FD0546B0E72E46D8E77D
:103A6800012635460AE0B3F1804FE5D0B3F1A04F07
:103A7800E2D0B3F1405FDFD001263546236813F466
:103A8800004F09D0E36EB3F1805F19D0B3F1005F46
:103A980024D0D3B101263546236813F0807F32D075
:103AA800636C032B59D8DFE803F026215226012145
:103AB80004F12400FFF790FD0546BDE72E46DDE73B
:103AC800284AD36A43F40033D3626DB9254A136D8B
:103AD80023F04053E16E0B431365DDE70121201D00
:103AE800FFF7F4FC0546F0E72E46D5E71D4AD36AF2
:103AF80043F40033D3629DBB1A4AD36C23F003030B
:103B0800616C0B43D364236813F4800F2CD12368B2
:103B180013F0010F00F0A380A36F282B00F29D8003
:103B2800DFE803F08B9B9B9B9B9B9B9B869B9B9BB4
:103B38009B9B9B9B949B9B9B9B9B9B9B8B9B9B9BE4
:103B48009B9B9B9B8B9B9B9B9B9B9B9B8B0002218B
:103B5800201DFFF7BBFC0546CDE701263546D2E719
:103B68002E46D0E7004402588F4A136843F4807306
:103B7800136001F051FA07468B4B1B6813F4807FE2
:103B880005D101F049FAC01B6428F5D90325002D99
:103B98004AD1864B1B6FD4F8B020534013F4407FB2
:103BA8000CD0824B1A6F22F44072196F41F48031A5
:103BB8001967196F21F4803119671A67D4F8B03082
:103BC800B3F5807F15D08DBBD4F8B03003F44072C4
:103BD800B2F5407F1ED0754A136923F47C531361F4
:103BE80072490B6FD4F8B020C2F30B0213430B6772
:103BF8008DE701F011FA07466C4B1B6F13F0020FAB
:103C0800E1D101F009FAC01B41F288339842F3D997
:103C18000325D8E76548026922F47C52644901EA21
:103C2800131313430361DBE72E4670E72E466EE756
:103C38000121201DFFF74AFC0546E5B95B4A536D93
:103C480023F03803A16F0B43536508E0012104F109
:103C58002400FFF7C1FC0546EFE701263546236837
:103C680013F0020F16D0636F052B27D8DFE803F097
:103C78000A051F0A0A0A2E46F1E70121201DFFF74F
:103C880025FC0546EDB9494A536D23F00703616FDA
:103C98000B435365236813F0040F22D0D4F89030F7
:103CA800052B43D8DFE803F0140F3B14141401214B
:103CB80004F12400FFF790FC0546E3E701263546AA
:103CC800E8E72E46E6E70121201DFFF7FFFB054642
:103CD8007DBB364A936D23F00703D4F890100B434D
:103CE8009365236813F0200F33D0D4F88C30B3F1E8
:103CF800005F4CD022D83BB1B3F1805F1BD10021CB
:103D0800201DFFF7E3FB0546002D47D1274A536DD9
:103D180023F0E043D4F88C100B43536519E00121DC
:103D280004F12400FFF758FC0546D1E70126354683
:103D3800D7E72E46D5E7012635460AE0B3F1804F8E
:103D4800E2D0B3F1A04FDFD0B3F1405FDCD0012661
:103D58003546236813F0400F37D0D4F89830B3F5C0
:103D6800006F52D026D83BB1B3F5806F18D100212F
:103D7800201DFFF7ABFB0546002D4DD10B4A936D77
:103D880023F4E053D4F898100B4393651DE0022107
:103D980004F12400FFF720FC0546B5E72E46D8E7D6
:103DA8000126354611E000BF004802580044025879
:103DB800CFFFFF00B3F5805FDED0B3F5A05FDBD0A7
:103DC800B3F5406FD8D001263546236813F0800F2D
:103DD80032D0D4F89C30B3F5804F00F09D8020D8C5
:103DE8003BB1B3F5005F19D10021201DFFF76EFB31
:103DF8000546002D40F09780A54A936D23F4604353
:103E0800D4F89C100B43936516E0022104F12400BA
:103E1800FFF7E2FB0546AFE72E46D6E70126354613
:103E28000AE0B3F5004FE4D0B3F5204FE1D0B3F585
:103E3800C04FDED001263546236813F0080F0CD09A
:103E4800D4F88030B3F5805F6FD0914A536D23F476
:103E58004053D4F880100B435365236813F0100FB8
:103E68000CD0D4F89430B3F5807F67D0884A936D2E
:103E780023F44073D4F894100B439365236813F428
:103E8800002F0BD0D4F8A030B3F5803F6ED0B3F537
:103E9800003F61D0002B5AD001263546236813F421
:103EA800802F0CD0D4F88430B3F5001F76D0B3F54A
:103EB800401F69D0B3F5801F61D0012635462368BD
:103EC80013F4803F07D0E36C002B70D0B3F5803F2C
:103ED8007BD001263546236813F0005F7DD1236827
:103EE80013F4003F00F08680E36FB3F5807F00F0A5
:103EF800C6807CD9B3F5007F03D0B3F5407F40F08E
:103F0800BC80002D40F0C180614A536D23F440739A
:103F1800E16F0B4353656DE0022104F12400FFF7C4
:103F28005BFB054665E72E4686E7022104F124007F
:103F3800FFF752FB002888D0012686E7022104F10A
:103F48002400FFF749FB002890D001268EE70021C6
:103F5800201DFFF7BBFA05467DB94D4A936D23F442
:103F68004033D4F8A0100B43936597E7022104F17E
:103F78002400FFF731FB0546EEE72E468EE7444A5C
:103F8800D36A43F40033D3627DB9414A536D23F4B5
:103F98004013D4F884100B43536590E7012104F1D2
:103FA8002400FFF719FB0546EEE72E4687E7384A57
:103FB800D36A43F40033D3626DB9354AD36C23F422
:103FC8008033E16C0B43D36485E70221201DFFF7A2
:103FD8007DFA0546F0E72E467DE7022104F124002C
:103FE800FFF7FAFA00283FF47AAF012677E7002BAB
:103FF80087D00126236813F4801F06D0244A136D46
:1040080023F00043216F0B431365236813F0805F8F
:1040180007D01F4A136923F48043D4F8B4100B4324
:104028001361236813F4001F06D0194A136D23F097
:104038008073A16E0B431365236813F0804F09D07A
:10404800134B1A6922F400421A611A69D4F8B8109D
:104058000A431A612368002B1CDB236813F4000F42
:1040680007D00B4A536D23F44003D4F888100B4350
:10407800536506B101263046F8BD0126BAE7044A61
:10408800D36A43F40033D3623BE72E46B2E700BF5E
:1040980000440258034AD36C23F04053216D0B436C
:1040A800D364DAE70044025808B5FFF7C9F9054BAD
:1040B8001B6AC3F30213044AD35C03F01F03D840FE
:1040C80008BD00BF00440258CC64000810B4784B07
:1040D8009A6A9C6AC4F3053CD96AC1F30011DB6B88
:1040E800C3F3CC0301FB03F314F47C3F00F0DB8043
:1040F80002F0030207EE903AF8EE677A012A66D0DA
:10410800022A00F0B380E2B107EE10CAF8EE476A5F
:104118009FED686A86EE267A654B9B6BC3F30803AE
:1041280006EE903AF8EE666A9FED636A67EE867A65
:1041380076EEA77AF7EE006A77EEA67A27EE277A68
:1041480061E05B4B1B6813F0200F23D058490A68C5
:10415800C2F3C102594BD34007EE103AF8EE476A52
:1041680007EE10CAB8EE476A86EE867A8B6BC3F301
:10417800080306EE903AF8EE666A9FED4F6A67EE1E
:10418800867A76EEA77AF7EE006A77EEA67A27EEB9
:10419800277A38E007EE10CAF8EE476A9FED486ABA
:1041A80086EE267A424B9B6BC3F3080306EE903AE1
:1041B800F8EE666A9FED406A67EE867A76EEA77A31
:1041C800F7EE006A77EEA67A27EE277A1BE007EE6D
:1041D80010CAF8EE476A9FED376A86EE267A344BA6
:1041E8009B6BC3F3080306EE903AF8EE666A9FED00
:1041F800326A67EE867A76EEA77AF7EE006A77EE8D
:10420800A67A27EE277A2A4A936BC3F3462307EE4A
:10421800903AF8EE677AF7EE006A77EEA67A87EEBC
:10422800276ABCEEC66A80ED006A936BC3F3064347
:1042380007EE903AF8EE677A77EEA67A87EE276A65
:10424800BCEEC66A80ED016A936BC3F3066307EEA2
:10425800903AF8EE677A77EEA67AC7EE276AFCEE10
:10426800E66AC0ED026A5DF8044B704707EE10CAB3
:10427800F8EE476A9FED136A86EE267A0C4B9B6B25
:10428800C3F3080306EE903AF8EE666A9FED0A6AF1
:1042980067EE867A76EEA77AF7EE006A77EEA67A68
:1042A80027EE277AAFE70023036043608360DAE7ED
:1042B800004402580024744A000000390090D003DA
:1042C8000024744C001BB74B10B4784B9A6A9C6A54
:1042D800C4F3055CD96AC1F300215B6CC3F3CC035A
:1042E80001FB03F314F07C7F00F0DB8002F0030293
:1042F80007EE903AF8EE677A012A66D0022A00F0B3
:10430800B380E2B107EE10CAF8EE476A9FED686A1B
:1043180086EE267A654B1B6CC3F3080306EE903ACB
:10432800F8EE666A9FED636A67EE867A76EEA77A9C
:10433800F7EE006A77EEA67A27EE277A61E05B4B04
:104348001B6813F0200F23D058490A68C2F3C10232
:10435800594BD34007EE103AF8EE476A07EE10CAF9
:10436800B8EE476A86EE867A0B6CC3F3080306EE4E
:10437800903AF8EE666A9FED4F6A67EE867A76EEB7
:10438800A77AF7EE006A77EEA67A27EE277A38E062
:1043980007EE10CAF8EE476A9FED486A86EE267A5D
:1043A800424B1B6CC3F3080306EE903AF8EE666ABC
:1043B8009FED406A67EE867A76EEA77AF7EE006A96
:1043C80077EEA67A27EE277A1BE007EE10CAF8EEFA
:1043D800476A9FED376A86EE267A344B1B6CC3F327
:1043E800080306EE903AF8EE666A9FED326A67EEC9
:1043F800867A76EEA77AF7EE006A77EEA67A27EE47
:10440800277A2A4A136CC3F3462307EE903AF8EE4C
:10441800677AF7EE006A77EEA67A87EE276ABCEE2F
:10442800C66A80ED006A136CC3F3064307EE903A40
:10443800F8EE677A77EEA67A87EE276ABCEEC66A48
:1044480080ED016A136CC3F3066307EE903AF8EE49
:10445800677A77EEA67AC7EE276AFCEEE66AC0EDC1
:10446800026A5DF8044B704707EE10CAF8EE476A17
:104478009FED136A86EE267A0C4B1B6CC3F3080378
:1044880006EE903AF8EE666A9FED0A6A67EE867A5B
:1044980076EEA77AF7EE006A77EEA67A27EE277A05
:1044A800AFE70023036043608360DAE70044025803
:1044B8000024744A000000390090D0030024744C92
:1044C800001BB74B10B4784B9A6A9C6AC4F3051C5E
:1044D800D96A01F001015B6BC3F3CC0301FB03F361
:1044E80014F47C7F00F0DB8002F0030207EE903AC0
:1044F800F8EE677A012A66D0022A00F0B380E2B1AA
:1045080007EE10CAF8EE476A9FED686A86EE267ACB
:10451800654B1B6BC3F3080306EE903AF8EE666A28
:104528009FED636A67EE867A76EEA77AF7EE006A01
:1045380077EEA67A27EE277A61E05B4B1B6813F0CB
:10454800200F23D058490A68C2F3C102594BD340FF
:1045580007EE103AF8EE476A07EE10CAB8EE476A57
:1045680086EE867A0B6BC3F3080306EE903AF8EEF4
:10457800666A9FED4F6A67EE867A76EEA77AF7EE5F
:10458800006A77EEA67A27EE277A38E007EE10CA97
:10459800F8EE476A9FED456A86EE267A424B1B6B1A
:1045A800C3F3080306EE903AF8EE666A9FED406A98
:1045B80067EE867A76EEA77AF7EE006A77EEA67A45
:1045C80027EE277A1BE007EE10CAF8EE476A9FED40
:1045D8003A6A86EE267A344B1B6BC3F3080306EE61
:1045E800903AF8EE666A9FED326A67EE867A76EE62
:1045F800A77AF7EE006A77EEA67A27EE277A2A4A94
:10460800136BC3F3462307EE903AF8EE677AF7EE9A
:10461800006A77EEA67A87EE276ABCEEC66A80ED56
:10462800006A136BC3F3064307EE903AF8EE677A15
:1046380077EEA67A87EE276ABCEEC66A80ED016A35
:10464800136BC3F3066307EE903AF8EE677A77EEDA
:10465800A67AC7EE276AFCEEE66AC0ED026A5DF844
:10466800044B704707EE10CAF8EE476A9FED136ACD
:1046780086EE267A0C4B1B6BC3F3080306EE903AC2
:10468800F8EE666A9FED0A6A67EE867A76EEA77A92
:10469800F7EE006A77EEA67A27EE277AAFE70023CF
:1046A800036043608360DAE7004402580024744CD6
:1046B800000000390090D0030024744A001BB74B57
:1046C80000B58BB0B0F5807F20D0B0F5007F71D0F9
:1046D800B0F5806F00F0C880B0F5006F00F0218160
:1046E800B0F5805F00F08281B0F5002F00F0DB812B
:1046F800B0F5803F00F01F82B0F5804F00F039829E
:10470800B0F5004F00F084820020B2E2954B1B6D9B
:1047180003F00703042B00F2A382DFE803F005107F
:104728001B0326009048A4E28E4B186810F0007016
:1047380000F09F8207A8FFF7C5FE089899E2894B09
:10474800186810F0006000F0948204A8FFF7BEFC1F
:1047580004988EE2834B186810F0005000F08982AC
:1047680001A8FFF7B1FD019883E27E4AD36C03F0FC
:104778004053126812F0040F07D033B9794B1B6805
:10478800C3F3C1037948D84073E2764A126812F439
:10479800807F03D0B3F1805F00F06482714A1268B1
:1047A80012F4003F00F06082B3F1005F00F05E8217
:1047B80000205EE26B4B1B6D03F4E073802B33D05B
:1047C80015D9C02B00F05482B3F5807F1FD1654AFC
:1047D800D36C03F04053126812F0040F2FD073BB50
:1047E800604B1B68C3F3C1036048D84041E283B102
:1047F800402B0AD15B4B186810F0006000F039823A
:1048080004A8FFF763FC049833E2002031E200209B
:104818002FE2544B186810F0007000F02A8207A8A5
:10482800FFF750FE089824E24E4B186810F000502D
:1048380000F01F8201A8FFF747FD019819E2494AD5
:10484800126812F4807F03D0B3F1805F00F0148205
:10485800444A126812F4003F00F01082B3F1005F7E
:1048680000F00E82002004E23E4B9B6D03F46003CF
:10487800B3F5800F35D016D9B3F5C00F00F002821A
:10488800B3F5000F20D1374AD36C03F040531268B8
:1048980012F0040F30D07BBB324B1B68C3F3C1034B
:1048A8003248D840E5E18BB1B3F5001F0AD12D4B52
:1048B800186810F0006000F0DC8104A8FFF706FC1F
:1048C8000498D6E10020D4E10020D2E1254B1868F5
:1048D80010F0007000F0CD8107A8FFF7F3FD0898ED
:1048E800C7E1204B186810F0005000F0C28101A801
:1048F800FFF7EAFC0198BCE11A4A126812F4807FBB
:1049080003D0B3F1805F00F0BF81164A126812F439
:10491800003F00F0BB81B3F1005F00F0B9810020D7
:10492800A7E1104B9B6D03F0E063B3F1007F3DD02E
:104938001ED9B3F1407F00F0AD81B3F1806F28D16B
:10494800084AD36C03F04053126812F0040F38D0B1
:10495800002B36D1034B1B68C3F3C1030348D8406F
:1049680087E100BF004402580080BB000090D003DC
:104978008BB1B3F1807F0AD1994B186810F00060B1
:1049880000F0778104A8FFF7A1FB049871E10020EB
:104998006FE100206DE1924B186810F0007000F094
:1049A800688107A8FFF78EFD089862E18C4B1868AC
:1049B80010F0005000F05D8101A8FFF785FC019818
:1049C80057E1874A126812F4807F03D0B3F1805F01
:1049D80000F06281824A126812F4003F00F05E81A2
:1049E800B3F1005F00F05C81002042E17C4B1B6D5D
:1049F80003F4E043B3F5005F35D016D9B3F5405F53
:104A080000F05081B3F5804F20D1754AD36C03F084
:104A18004053126812F0040F30D07BBB704B1B68F8
:104A2800C3F3C1036F48D84023E18BB1B3F5805F6E
:104A38000AD16B4B186810F0006000F01A8104A8C6
:104A4800FFF744FB049814E1002012E1002010E174
:104A5800634B186810F0007000F00B8107A8FFF78F
:104A680031FD089805E15E4B186810F0005000F021
:104A7800008101A8FFF728FC0198FAE0584A12685B
:104A880012F4807F03D0B3F1805F00F00D81544AA7
:104A9800126812F4003F00F00981B3F1005F00F0E2
:104AA80007810020E5E04E4B9B6D03F44033B3F5DE
:104AB800803F10D0B3F5003F18D00BB10020D8E0EC
:104AC800474B186810F0006000F0D38004A8FFF787
:104AD800FDFA0498CDE0424B186810F0005000F041
:104AE800C88001A8FFF7F0FB0398C2E03C4AD36CEA
:104AF80003F04053126812F0040F07D033B9384B53
:104B08001B68C3F3C1033748D840B2E0344A12687F
:104B180012F4807F03D0B3F1805F00F0CB80304A7D
:104B2800126812F4003F00F0C780B3F1005F00F094
:104B3800C58000209DE02A4BDB6C13F4803302D043
:104B480063B9002095E0264B186810F0007000F05B
:104B5800908007A8FFF7B6FC08988AE0204B1868F1
:104B680010F0006000F0858004A8FFF7AFFA0698FF
:104B78007FE01B4B9B6D03F0E043B3F1405F35D002
:104B880015D8B3F1805F21D0B3F1005F09D1144B80
:104B9800186810F000506CD001A8FFF795FB029838
:104BA80067E013B9FFF780FA63E0002061E0B3F132
:104BB800804F26D0B3F1A04F06D1094B186810F4E6
:104BC800003056D0084854E0002052E0044B1868E2
:104BD80010F000604DD004A8FFF778FA059848E077
:104BE800004402580090D00300366E01344B186818
:104BF80010F004003DD01B68C3F3C1033148D8400E
:104C080037E02F4B186810F4807032D02E4830E00F
:104C18002B4B1B6D03F04053B3F1805F0CD0B3F105
:104C2800005F13D00BB1002023E0254B186810F467
:104C380000301ED025481CE0214B186810F0007089
:104C480017D007A8FFF73EFC089812E01C4B18681D
:104C580010F000600DD004A8FFF738FA059808E0B6
:104C6800002006E0184804E0002002E0174800E0B1
:104C780017480BB05DF804FB1348FAE70020F8E783
:104C88001248F6E71248F4E70F48F2E70020F0E789
:104C98000E48EEE70E48ECE70B48EAE70020E8E7A5
:104CA8000A48E6E70A48E4E70748E2E70020E0E7C1
:104CB8000648DEE70448DCE70020DAE70348D8E7DF
:104CC800004402580090D00300093D0000366E01F0
:104CD8000080BB00F0B583B000236BE085685E0000
:104CE8000324B44025EA0405CC68B4402C4384600E
:104CF800456825EA0C054C68C4F300149C402C4315
:104D0800446069E0DD08083550F8254003F0070CD9
:104D18004FEA8C0C4FF00F0E0EFA0CFE24EA0E0E22
:104D28000C6904FA0CF444EA0E0440F825406BE0E0
:104D3800092400E0002404FA0EF42C430CF1020CC0
:104D4800694D45F82C404FF0B0442568D44325EA16
:104D580002064F6817F4801F01D042EA05064FF09B
:104D6800B0452E606D6804EA05064F6817F4001F09
:104D780001D042EA05064FF0B0456E60D5F8845080
:104D880004EA05064F6817F4003F01D042EA050619
:104D98004FF0B045C5F88460D5F880502C404E6877
:104DA80016F4803F01D042EA05044FF0B042C2F841
:104DB800804001330A6832FA03F400F092804FF021
:104DC800010C0CFA03FC1CEA0202F2D04C6804F055
:104DD8000304013C012C81D94C6804F00304032C22
:104DE8000CD0C4685D004FF0030C0CFA05FC24EAF3
:104DF8000C0C8C68AC4044EA0C04C4604C6804F0A9
:104E08000304022C3FF47EAF04684FEA430E4FF0D0
:104E1800030C0CFA0EFC24EA0C0C4C6804F0030496
:104E280004FA0EF444EA0C0404604C6814F4403F9D
:104E3800BFD02E4CD4F8F45045F00205C4F8F45015
:104E4800D4F8F44004F002040194019C4FEA930C56
:104E58000CF10205244C54F8255003F0030E4FEAD8
:104E68008E0E0F2404FA0EF425EA0405204CA04205
:104E78003FF460AF04F58064A04222D004F580645A
:104E8800A04220D004F58064A0421ED004F58064BE
:104E9800A0421CD004F58064A0421AD004F58064B6
:104EA800A04218D004F58064A04216D004F58064AE
:104EB800A04214D004F58064A0423FF439AF0A241C
:104EC80039E7012437E7022435E7032433E70424CC
:104ED80031E705242FE706242DE707242BE70824CC
:104EE80029E703B0F0BD00BF000400580044025891
:104EF800000002580AB18161704709048161704756
:104F0800134BDB6813F0040F07D1114BDB6803F078
:104F1800070383421AD00120704710B50C4AD368A2
:104F280023F007030343D36000F076F80446084BE8
:104F38005B6813F4005F07D100F06EF8001BB0F552
:104F48007A7FF4D9012000E0002010BD00207047CE
:104F580000480258104B1B780BB90120704710B558
:104F680004464FF47A70B0FBF3F30C4A1068B0FBB8
:104F7800F3F0FCF7BDFE68B90F2C01D901200AE057
:104F8800002221464FF0FF30FCF7A2FE044B1C60C4
:104F9800002000E0012010BD0800002004000020CF
:104FA8000C00002010B50320FCF780FEFEF704F883
:104FB8000F498B69C3F303230E4AD35C03F01F0325
:104FC800D8408B6903F00F03D35C03F01F0320FA6A
:104FD80003F3094A1360094B18600F20FFF7BAFF63
:104FE80010B10124204610BD0446FBF7F5FEF9E791
:104FF80000440258CC64000800000020040000208F
:10500800034B1B78034A11680B441360704700BFB9
:1050180008000020D0030020014B1868704700BF2B
:10502800D0030020014B1868000C70470010005C8A
:1050380003689A6912F0020F01D000229A6203688D
:105048009A6912F0010F03D19A6942F001029A613C
:10505800704710B4019CC1F3090141EA02411943A8
:10506800214321F0004102685368640D04F4806410
:1050780044F07F7444F4583444F47F7444F00304D7
:1050880023EA04030B4353605DF8044B70472DE992
:10509800F041044603689F6917F010074ED00E468A
:1050A80090461022DA6100252368986910F0200FD5
:1050B8003DD1002D3BD1B6F1FF3FF5D0FFF7ACFF56
:1050C800A0EB0800B04201D8002EEDD121684A6853
:1050D80002F4804294F84230DBB2886910F4004F41
:1050E80004D0203B18BF012302B9C3B923689B69C8
:1050F80013F0200FD8D1FFF78FFFA0EB0800192875
:10510800F4D9636C43F020036364202384F84130AE
:10511800002384F8423084F840300125E6E74B68E4
:1051280043F480434B60FFF777FF8046DEE7002DAE
:1051380040D12022DA610427012500E000252268F9
:10514800936913F4807F05D047F001074FF480710D
:10515800D161012513F4806F06D047F00807226853
:105168004FF48061D161012513F4007F24D047F00A
:10517800020723684FF40072DA6101252046FFF721
:1051880057FF2268536823F0FF7323F48B3323F40B
:10519800FF7323F001035360636C3B436364202374
:1051A80084F84130002384F8423084F8403028469F
:1051B800BDE8F0810427C2E7002DF8D0DEE770B51E
:1051C80004460D46164623689B6913F0020F1DD14D
:1051D800324629462046FFF75AFFC8B9B5F1FF3FC6
:1051E800F1D0FFF719FF801BA84201D8002DEAD1A2
:1051F800636C43F020036364202384F84130002368
:1052080084F8423084F84030012000E0002070BD6E
:105218000120FCE72DE9F0410646884617461D4661
:105228003468A46938EA04040CBF01240024BC4291
:1052380018D1B5F1FF3FF3D0FFF7EEFE069BC01A79
:10524800A84201D8002DEBD1736C43F0200373649E
:10525800202386F84130002386F8423086F8403013
:10526800012000E00020BDE8F08170B505460C463D
:1052780016462B689B6913F0200F1AD13246214637
:105288002846FFF704FFB0B9FFF7C6FE801BA0420F
:1052980001D8002CEDD16B6C43F020036B64202304
:1052A80085F84130002385F8423085F840300120E8
:1052B80070BD0020FCE70120FAE770B504460D46F2
:1052C800164623689B6913F0040F49D132462946D4
:1052D8002046FFF7DCFE0146002843D123689A697F
:1052E80012F0200F13D1FFF797FE801BA84201D8B8
:1052F800002DE6D1636C43F020036364202384F817
:105308004130002384F840300121084670BD9A6975
:1053180012F0040F02D0228D002AF6D19A6912F0F9
:10532800100F1AD01022DA61042363642368202244
:10533800DA6121684B6823F0FF7323F48B3323F47D
:10534800FF7323F001034B6084F84120002384F8A5
:10535800423084F840300121D7E700236364E5E751
:105368000021D2E70121D0E7002857D010B5044624
:1053780090F84130002B41D0242384F84130226832
:10538800136823F0010313606368226823F07063D5
:1053980013612268936823F400439360E368012B48
:1053A80031D0A368226843F404439360E368022B76
:1053B8002FD0226851681A4B0B4353602268D36878
:1053C80023F40043D360236962691343A169226807
:1053D80043EA0123D360E369216A22680B4313601F
:1053E8002268136843F001031360002060642023DF
:1053F80084F84130206384F8420010BD80F84030C2
:10540800FBF76CFDB8E7A368226843F40043936098
:10541800CCE723684FF400625A60CAE7012070475E
:10542800008000022DE9F04782B00F460A9E90F8EE
:105438004110C9B2202940F0A380044690469946FD
:1054480090F84030012B00F09F804FF0010A80F85F
:1054580040A0FFF7E1FD05460090192352464FF49E
:1054680000412046FFF7D6FE002840F08F80212318
:1054780084F84130102384F8423000236364C4F870
:105488002480A4F82A906363638D9BB2FF2B0AD90A
:10549800FF222285414B00934FF080733946204606
:1054A800FFF7D7FD18E0628D92B222853B4B00933F
:1054B8004FF00073D2B239462046FFF7CAFD0BE021
:1054C800628D92B22285002300934FF00073D2B20E
:1054D80039462046FFF7BDFD638D9BB2002B33D0C4
:1054E8002A4631462046FFF76AFE002850D1626AF4
:1054F800236812789A62636A01336362638D9BB290
:10550800013B9BB26385238D013B9BB22385628D52
:1055180092B2002AE0D0002BDED10095334600225B
:1055280080212046FFF776FEA0BB638D9BB2FF2B40
:10553800C6D9FF222285002300934FF08073394695
:105548002046FFF786FDC7E72A4631462046FFF783
:105558008CFE08BB23682022DA6121684B6823F09F
:10556800FF7323F48B3323F4FF7323F001034B60A1
:1055780084F84120002384F8423084F8403000E069
:10558800022002B0BDE8F0870220FAE70120F8E720
:105598000120F6E70120F4E70120F2E7002000806F
:1055A8002DE9F04782B00F460A9E90F84110C9B223
:1055B800202940F0A28004469046994690F8403051
:1055C800012B00F09E804FF0010A80F840A0FFF701
:1055D80023FD05460090192352464FF4004120460A
:1055E800FFF718FE002840F08E80222384F841300F
:1055F800102384F8423000236364C4F82480A4F89C
:105608002A906363638D9BB2FF2B0AD9FF22228500
:10561800414B00934FF0807339462046FFF719FD40
:1056280018E0628D92B222853B4B00934FF00073D5
:10563800D2B239462046FFF70CFD0BE0628D92B2DC
:105648002285002300934FF00073D2B239462046DA
:10565800FFF7FFFC638D9BB2002B32D02A46314600
:105668002046FFF72AFE00284FD123685A6A636A4A
:105678001A70636A01336362228D013A92B22285FD
:10568800638D9BB2013B9BB26385638D9BB2002BFC
:10569800E0D0002ADED10095334680212046FFF76E
:1056A800B9FDA0BB638D9BB2FF2BC7D9FF22228512
:1056B800002300934FF0807339462046FFF7C9FC5A
:1056C800C8E72A4631462046FFF7CFFD08BB2368C6
:1056D8002022DA6121684B6823F0FF7323F48B33AF
:1056E80023F4FF7323F001034B6084F84120002367
:1056F80084F8423084F8403000E0022002B0BDE86F
:10570800F0870220FAE70120F8E70120F6E70120F8
:10571800F4E70120F2E700BF00240080034690F878
:105728004120D2B2202A23D190F84020012A21D04A
:10573800012280F84020242280F841200068026875
:1057480022F0010202601868026822F480520260A6
:10575800186802681143016019680A6842F001027A
:105768000A60202283F84120002083F84000704717
:105778000220704702207047034690F84120D2B2B9
:10578800202A21D190F84020012A1FD0012280F838
:105798004020242280F841200068026822F001029B
:1057A80002601868026822F4706242EA012202600C
:1057B80019680A6842F001020A60202283F8412031
:1057C800002083F84000704702207047022070478D
:1057D80070B586B00446016883680269134342695C
:1057E8001343C26913430868884A02401A430A608F
:1057F8002268536823F44053E1680B435360A1695E
:105808002268834B9A4201D0236A19439068814BDE
:1058180003400B4393602268D36A23F00F03616A45
:105828000B43D36222687C4B9A4221D07B4B9A422D
:1058380000F08C807A4B9A4200F0A280794B9A4211
:1058480000F0B580784B9A4200F0C880774B9A42B6
:1058580000F0F480764B9A4200F01981754B9A4219
:1058680000F02C816A4B9A4200F03F81802333E09C
:10587800714B5B6D03F03803282B65D8DFE813F014
:10588800290064006400640064006400640064002B
:105898004D016400640064006400640064006400F6
:1058A8002B00640064006400640064006400640009
:1058B8005E006400640064006400640064006400C6
:1058C80060006400640064006400640064006400B4
:1058D8006200012300E008234D498A4200F02F812D
:1058E800E069B0F5004F00F0AF81202B00F207828D
:1058F800202B00F25182DFE813F01E0224024F022F
:105908004F0227024F024F024F022C024F024F0252
:105918004F024F024F024F024F0231024F024F0215
:105928004F024F024F024F024F024F024F024F02E7
:105938004F024F024F024F024F023D021023CBE7A6
:105948002023C9E74023C7E78023C5E73A4B5B6DAF
:1059580003F00703052B11D8DFE813F00600E10078
:1059680008000A000C000E000023B5E70823B3E77F
:105978001023B1E72023AFE74023ADE78023ABE74F
:105988002D4B5B6D03F00703052B0ED8DFE803F002
:1059980003C90507090B00239EE708239CE710238A
:1059A8009AE7202398E7402396E7802394E7224B41
:1059B8005B6D03F00703052B0ED8DFE803F003B493
:1059C8000507090B002387E7082385E7102383E7EA
:1059D800202381E740237FE780237DE7164B5B6D1B
:1059E80003F00703052B0ED8DFE803F0039F050734
:1059F800090B002370E708236EE710236CE72023C8
:105A08006AE7402368E7802366E700BFF369FFCFB2
:105A1800000C0058FFF4FF11001001400044004042
:105A280000480040004C0040005000400014014075
:105A380000780040007C0040004402587D4B5B6DBC
:105A480003F03803282B20D8DFE803F0151F1F1FA9
:105A58001F1F1F1F711F1F1F1F1F1F1F171F1F1F04
:105A68001F1F1F1F191F1F1F1F1F1F1F1B1F1F1F48
:105A78001F1F1F1F1D0001232EE708232CE71023DB
:105A88002AE7202328E7402326E7802324E7694BD9
:105A98005B6D03F00703052B0ED8DFE803F0034A1C
:105AA8000507090B002317E7082315E7102313E759
:105AB800202311E740230FE780230DE75D4B5B6D43
:105AC80003F00703052B0ED8DFE803F003350507BD
